:040000006F20507CA1
:100004000000000000000000780300007A030000F4
:1000140000000000C22F00000000000000000000EB
:10002400C22F0000C22F00000000000000000000EA
:10003400C22F000000000000C22F000000000000DA
:10004400C22F0000C22F0000C22F0000C22F0000E8
:10005400C22F0000C22F0000C22F0000C22F0000D8
:10006400C22F0000C22F0000C22F0000C22F0000C8
:10007400C22F0000C22F0000C22F0000C22F0000B8
:10008400C22F0000C22F0000C22F0000C22F0000A8
:10009400C22F0000C22F0000C22F0000C22F000098
:1000A400C22F0000C22F0000C22F0000C22F000088
:1000B400C22F0000C22F0000C22F0000C22F000078
:1000C400C22F0000C22F0000C22F0000C22F000068
:1000D400C22F0000C22F0000C22F0000C22F000058
:1000E400C22F0000C22F0000C22F0000C22F000048
:1000F400C22F0000C22F0000C22F0000C22F000038
:1001040000000000C22F0000C22F0000C22F000018
:10011400C22F0000C22F0000C22F0000C22F000017
:10012400C22F0000C22F0000C22F00008028000050
:10013400C22F0000C22F0000C22F0000C22F0000F7
:10014400C22F0000C22F0000C22F0000C22F0000E7
:10015400C22F0000C22F0000C22F0000C22F0000D7
:10016400C22F0000C22F0000C22F0000C22F0000C7
:10017400C22F0000C22F0000C22F0000C22F0000B7
:10018400C22F0000C22F0000C22F0000C22F0000A7
:10019400C22F0000C22F0000C22F0000C22F000097
:1001A400000000000000000000000000000000004B
:0C01B4000000000000000000000000003F
:1001C000397101436EC619A0397141536AC866CAB4
:1001D00062CC5ECE19A0397101535AD056D252D496
:1001E0004ED64AD826DA22DC06DE3301614082820E
:1001F00041114AC026C222C406C68282B24D4101C4
:10020000024D924C224CB24B4101024B924A224A7F
:10021000B2494101024992442244B24041018280E4
:100220003D432A876373C3029377F700BDEFADE5C3
:10023000937606FF3D8ABA960CC34CC30CC74CC7D5
:100240004107E36BD7FE11E28280B306C3408A0602
:100250009702000096966780A6002307B700A306C2
:10026000B7002306B700A305B7002305B700A30412
:10027000B7002304B700A303B7002303B700A3020A
:10028000B7002302B700A301B7002301B700A30002
:10029000B7002300B700828093F5F50F9396850091
:1002A000D58D93960501D58D61B79396270097025A
:1002B000000096968682E78086FA9680C1171D8F89
:1002C0003E96E374C3F8A5B714C5B386C6024CCDF9
:1002D00050C9232005002322050023280500232CD4
:1002E000050054C582801C4991E71C45084D3385A3
:1002F000A7408280014582801C498DCB184D1C454A
:100300006314F70085471CC982801441584D138639
:10031000160010C13386F5001022369710A3144141
:1003200058456394E6002320050085075849E3CE2D
:10033000E7FC1C4D85071CCDD1B7184D81476344A0
:10034000E00282805441584D1386160050C1369702
:1003500014233387F50014A3544158456394E600F1
:100360002322050085075849E3CEE7FC1C4D2328CE
:100370000500FD171CCD828001A0B707EFBE37E74F
:1003800000E0938707083CC701A0EFF27FE63744FF
:100390000040AA841309048089454A85EF3060141F
:1003A00065DDA6851305048037440040EF30E01278
:1003B0009304048085452685EF30A01265DD130582
:1003C0000480EF30C0111375F50FA9B5EFF2BFE04F
:1003D00001118545214502C002C202C402C602C8FD
:1003E00002CA02CC231E0100EF30E00585451165ED
:1003F000EF3040073714014085678D4441498A85B5
:10040000130504C07C804AC426C2EF20905D0546D7
:10041000130504C08565EF20D0688967E1498A85A6
:10042000130504C07C804EC426C2EF20905B916708
:100430007C808A859147130504C03EC4EF20705A22
:10044000E1778A85130504C07C804EC426C2EF2064
:100450005059B70704013EC6B70702003EC8B707A8
:1004600000023744004085073ECA6C009D471305D3
:100470000480FC864ACCEF30C0008545130504801B
:10048000EF300004056151B3EFF29FD6B71401407D
:1004900001468565138504C0EF20B060130500098F
:1004A000ED350145DD350145CD350145F93D1305F6
:1004B000F00FE13D2205131405011305F00FF1358E
:1004C0004180498C0546138504C0856542044180FE
:1004D000EF20305D22853DBBEFF29FD12A84371596
:1004E00001402E89B28485650146130505C0EF20C1
:1004F000505B0D45593D135509011375F50F7135C5
:10050000135589001375F50F49351375F90FB53D6E
:10051000A294631B940037150140054685651305B9
:1005200005C0EF201058FDB11305F00FB93D08A02C
:100530000504C5B7544110451841B387B6005CC1E6
:100540006342F60413F676008D8636971C23130556
:10055000F00F3355C540E98FB295050701459386E5
:1005600085FF6349D0002147B305B740B3D7B70033
:100570005D8D8280B397D7005D8D05078347F7FFB8
:10058000B685F1BF0145828014211307F00FAA87B9
:1005900001456391E60498339306000F1376070F25
:1005A0006309D6009376E70F1306200E0145639387
:1005B000C60205830D8B014511CFBC233D4793D661
:1005C00047006389E60013D527000D89751533357B
:1005D000A00082808280EFF2BFC141112A842E8563
:1005E0002EC65D3715C9B245183001459C313D8F87
:1005F0001377E70F15E33C20B821B3C6E700B18AB3
:1006000081EE13F5070F1377070F3335A00013376B
:100610001700198D3335A0004101EDBE1C3119477B
:1006200093F66700638BE600B98B09471305002436
:100630006387E70013050048828013050018828055
:1006400095669305800737060040938606B62A878D
:1006500063D4A5001307800793572740B357F6408C
:10066000D3F707D0937737008A07B6979863198D29
:10067000D3F7E7105375F510E34BA0FC82808A0591
:100680008567AA95938707903307F5001C61186367
:100690001105D3F6E700D3F7E708272ED5FE1CE3B4
:1006A000E394A5FE8280B757000007218500086902
:1006B0001461187187A707B00C6D5376E100537071
:1006C000A100C3F0F568D3F5B608D376E5085377F3
:1006D0002708B757000007A147B0B7570000537766
:1006E000A7004B75F75853F7E50087A787B0B757B2
:1006F0000000CB75260818E907A7C7B0B757000058
:10070000C3F5F658CB71E0084377E00887A207B13C
:10071000B757000007A047B1437626184BF7F6708D
:1007200087214501546D5C61B757000053F2D10831
:1007300053F137008720C5005372021053F0D700E1
:10074000D3F73708D3725110D3F7D70887A687B1EC
:10075000B757000007A3C7B14BF1D020CBF1D02889
:10076000C3F0D02053715108CB7160184B706008F2
:10077000D37027085377270027201500C3F0D750E0
:10078000CBF7D75018F127221500D37006085376FF
:1007900006005CED27241500D3F03500D3F53508AD
:1007A00010ED272615004CE98280EFF2FFA11D71A4
:1007B000930445048149930A4002156C338A590316
:1007C000938BC4FB2E9A63C4D900256115BC87A7FF
:1007D000C4FB78183C08D397F720138404FC3A89AB
:1007E0003EEC9C603E8B3EFE58601C6041046117ED
:1007F000D3F6E708D3F7E700072784FFA10714F72C
:1008000027AEF7FE8727C4FFD3F6E708D3F7E70044
:1008100054F3D397F7209CE3E39884FC5A8536C6BB
:1008200032C42EC249354A85BD3D86672246B2464E
:10083000D397F720924513050C2EBEE0A6673287AA
:100840008147D397F720BEE4C667D397F720BEE869
:10085000E667D397F720BEECB308FB0007A70800B4
:10086000B308F900106107A5080054713308FA00B5
:10087000D377C51087250800110511077114C377B8
:10088000D778D3F6A6104777C7682720E8001473F7
:100890000727C7FF3388FB00D3F6D7109107C77629
:1008A000B7682720D8000727C7FFD3F7E7101873CA
:1008B000C377B7785CE0E39157FB850993848404A0
:1008C000F5BDB767000087A74787D387A7A08DEB43
:1008D000B767000087A787876175D307F5A09DE3F9
:1008E000B757000087A707B05375F500531505C02B
:1008F000420541859357F5011D8D42054185828052
:1009000021657D158280EFF2BF8E056432941862F6
:10091000872704E0872604D0B7670000D3F7E708ED
:10092000072706100725049041115377D70087A6A3
:10093000C787B7670000AA842EC65377D71087A64B
:100940000788B767000032C4C3F7D77007270620AF
:10095000872604C0D3F6E60807A74788B7670000D4
:10096000C3F7E67887260630072704B0D3F6E600FB
:1009700007A78788B767000043F7E6788727064010
:10098000872604A0D3F6F60887A7C788B7670000B4
:10099000C3F7F670072706505377A70007A5078906
:1009A000B76700004377A77807250660872704808C
:1009B000D3F7A70807A54789B7670000C3F7A77053
:1009C0000725067007A787894375E578DD3DB7677A
:1009D0000000872784C007A5C789B767000007A75D
:1009E000078A53F5A710872784E0B76700008AA01D
:1009F00043F5E750872784A007A7478AB767000019
:100A000043F5E7508727848007A7878A2246B76780
:100A10000000C3F7E7500725866007A7C78AB767B6
:100A20000000B245C377E5780725864007A7078B06
:100A3000B76700009605C377E5780725862007A7E6
:100A4000478BB7670000AE944375E578186687A7B3
:100A5000878B4375F750B5358AA041016FF08FFB46
:100A60003C21898B89CB1C3119471145998B6385B2
:100A7000E70005458280014582801C798720450278
:100A8000B757000007210500D3F5170007A607B0E8
:100A9000146D0720C50001114FF7C510D3F52508C7
:100AA00053F50600B7570000D3F60608D3F717082A
:100AB0002EE687A587B115679306872C4371B5701D
:100AC0004B75B570587D1307872C138545014BF680
:100AD000C6705377D7002AE80AE4814743F5B76028
:100AE000CBF7B7605317E720B1482AEA3EEE3AEC5D
:100AF000130381003E9307260300130341013E9335
:100B00009C6207200300CC663308F600D376F01011
:100B100007250800910671177115C376B668D3F5DD
:100B200005104776F6582720C8001C6F5867338891
:100B3000F50053F6D71091074776A7605377D71083
:100B40002720C800C3F7A7705CE1E39317FB05619A
:100B50008280EFF2EFE941112A842EC6C1341430AD
:100B60003D430348240093D716008D8B13F686006F
:100B7000FD173337C000B38767021303D0029358C1
:100B800048001378C80013361600B24533076702D1
:100B9000BA9715671307876EBA97C6979C23156790
:100BA000130707B786073385A7029307D007429735
:100BB0003305F5021C4313D7460013471700B3D77C
:100BC000C700058BB3D7E700998A3355F5029947DB
:100BD0006393F600719911E12E8541016FF08FE367
:100BE000EFF20FDE7173157113030304A2EFA6ED8C
:100BF000CAEBCEE9D2E71A912AC236D23AC6914759
:100C0000AE89328963D8C704924709653384A70047
:100C1000034784809307F00F631EF7029247130582
:100C200085803E954D3A1DC5832544804E851537F8
:100C3000AA8C4E853535AA9C63872C1D93873C0072
:100C400063DA2701B38599014E85713201C5014DE3
:100C5000639C0C0C1245096A1306CAA08145EFF08B
:100C60002FDC9247856A014D130BC9FF3E9A938A88
:100C70000A90B384A90163486D01CA8CB24723A0CE
:100C800097010145BDA2268501321DC983254A80F1
:100C90002685914D7D3D2A842685D933B30CA40049
:100CA00019C06F10902863875D0193971D00EA9724
:100CB00063CA670163140D006306990723220A8043
:100CC000050D45BF338CB401E2852685293215C94F
:100CD000268579333384AD4062855933B305A4004A
:100CE000B307BD01AE978D07014563DC2701EE9583
:100CF000A6952685EFF03F8E09C523228A80EE8CCB
:100D00002285850D2A8469BFB385B4012685EFF05D
:100D10009F8C4DD1850BA9476384FB006F10302257
:100D20006F101025E38C0CF41247B387A9013EC461
:100D3000896793878780A245BA973E8511463ED83A
:100D4000EF20102B3247B3079D019306000C1CC304
:100D5000A2472322A7010547BC3393F7070C6383FF
:100D6000D7000947B24798C72247A24730239C3390
:100D70001377C6001566130606B73A9613D73700E1
:100D800013471700937617001842918393C71700F3
:100D90003357D700858BB357F70032473D46A246FD
:100DA0005CC7A24711479C3385838D8BB307F740FF
:100DB00032471CCBA247B422983391829357170035
:100DC0008D8BFD170D83B387C702058B1306D002E9
:100DD0003307C702BA9715671307876EBA97B69796
:100DE0009C23324786075CCB925785E32245EFF080
:100DF000FF8211631A917A64EA645A69CA693A6A8D
:100E00000D616FF0AFBF014D05B7A247F11C8E0C0D
:100E10009107BEDCA24782DE66C19C337175858B6B
:100E200091EB9167C10798186115BA97C1453E9536
:100E3000EFF04FF0B24701459C4B3ECA52478D47F9
:100E4000E319F7FAA2479306000C85449C3313D4A8
:100E5000370013D74700058B05883A94524733046F
:100E6000E4022247382309830D8B3A9433378000FC
:100E7000198C224738331377070C6303D700894452
:100E80007175A18B6115F9C791679818C107BA9759
:100E9000B389A700A5454E85EFF0CFE986042A89DE
:100EA000938574004E85EFF0EFE8AA89DD47B3071C
:100EB000F40215671307C7EC91669018856B156BE4
:100EC000130B4BF8F17A416CBA973EC89307800236
:100ED0003304F402956793878711138706013297CD
:100EE000014A7D1CD94DA2973ECCF17793874709E3
:100EF000BA971387CBB0B38CE70093870601229B88
:100F0000B29713848AFF3E94938BFBF0A247B833C9
:100F10009307000C1377070C6313F7009209B14590
:100F20002285EFF02FE12392AC00337585012A9AD8
:100F3000A5452285EFF00FE0420541812393AC00E7
:100F40009307001263F5A70212478967BA972384B3
:100F5000078005BB91679818C107BA9793858400ED
:100F60003E95EFF02FDD33599500814981B7A145BA
:100F70002285EFF02FDCA2472385AC009145983302
:100F8000218B11E3A5452285EFF0CFDAC2472394E8
:100F9000AC00A386BC0123A0FC0023870C00854580
:100FA0002285EFF02FD9630C052089452285EFF0CB
:100FB0006FD81375F50FA385AC0059D585452285EB
:100FC000EFF04FD71D4783C6BC001375F50F23897B
:100FD000EC007D57A389EC002386AC00094763929F
:100FE000E602B3F979016310051CE2472147238922
:100FF000EC0023A0FC00A3860C00130770022387DB
:10100000EC00A9452285EFF0EFD28D45131D550068
:101010002285EFF02FD2A38AAC008D452285EFF018
:101020006FD1238BAC008D452285EFF0AFD0A38B21
:10103000AC00A2471377FD019356AD00A388EC00E6
:101040009833A387DC0093565D00FD8A2388DC007B
:10105000218B630F071885452285EFF0AFCD1375FF
:10106000F50F238CAC0085452285EFF0AFCCA38C27
:10107000AC0085452285EFF0EFCB13D7C9003D8B3F
:10108000238DAC00A38DEC00FD149209F10CE39FBD
:1010900004E69167C1079818BA97BE9A03ABCAFFD6
:1010A00003A40A00931739005A9AA297E3CE47E99E
:1010B000E34C09E8E34A64E9124789673304644171
:1010C000BA9703AA07800D84CA8463532A01D28485
:1010D000124789679387C780BA973EDC9167C1073B
:1010E00098187175BA973E95B3052A411305050AFC
:1010F00063D305008145E2572686BE95EF20406FF9
:1011000091669018138706013297F177B309F700BB
:10111000138706013297BA973EC8A147B347FB022F
:1011200042479389090A2286832587FF33859900E0
:1011300026940E04BE95EF20A06BC24733252A01EA
:1011400023AA370923AC070823AE87089347150065
:10115000BEC263442A016F10005A116741079418F8
:101160003697F177BA973EC4224783A787090324AD
:10117000C7099D078D830D801D8C1307F01F6354D5
:1011800087006F100058635480006F10205812477A
:1011900089674255BA9723A08780EFF02FC89647FA
:1011A0003385A702B9B1A24723A06C01A1469833A9
:1011B000218B11E39946A386DC00794789B5BD45AB
:1011C000A3850C0023860C002285EFF0AFB6914575
:1011D0002A8D2285EFF00FB62389AC008D4522853C
:1011E000EFF04FB5FD56A389AC00238ADC0091B522
:1011F00003D58C001335451F134515009DB51167A8
:10120000941841073697F177BA973EC803D754FF31
:1012100083A78709916B938BCBF1BA973ED4825702
:1012200003CCF4FF03CDA400BE9B83C7E4FF333C93
:101230008001096793B717003E9CF147B307FC0292
:10124000156C130C4C0C03D894FF3E9C93071D00A7
:101250003ED692473E9783469780A18A6386062EA4
:10126000956793878725C2979C23424783CAC4000A
:1012700093D627008D8B54A354B37CA37CB3116702
:10128000F17C90189306070193874C01B296338D39
:10129000F600BA87C107938D4C004107938C4C0927
:1012A000B2973297E697014ABA9D3EC8B3064C0101
:1012B00083CC060063820C0213F38A00630A032EB8
:1012C0006686DE856A85EF20A052050A9146E69B78
:1012D000669D860AE31CDAFC03CCF4FF23010D00B3
:1012E000A3000D0023000D0083CDE4FF63030C3247
:1012F00032578D47F020998FF43098243316F6003A
:10130000B396F6009165B317F70013F7F70FC10511
:10131000F1778818AA95D107AE971376F60F93F652
:10132000F60FEE97814588238D058D073295A38EA4
:10133000A7FE03C5E7FF3695238FA7FE03C5F7FF7A
:101340003A95A38FA7FEE3C085FF9246096703C5C0
:10135000B4FF36970347B780930600069307A5F2BC
:101360001377070E09456310D72E538594201D8DE2
:101370001305C502EFF0CFAC9166F1779018138793
:101380000601938B47093297BA9B09671307C7D7A2
:10139000BA9B5309A52013870601D1073297E29D16
:1013A000814C330CF7006392BC2B03288111214739
:1013B000832741113347E802F1768818938646095E
:1013C000056603D374FF83A814FF530700F0137856
:1013D00078001306C6B75A96268C3E971C230C330A
:1013E0001107A207AE978345E7FFA207AE97834593
:1013F000F7FFA207AE979165C105AA95AE968965DC
:101400009385C5D7AE96B765000007A6058CB7656E
:10141000000087A5C58CB765000007A5058D5300A2
:10142000C620B39707016118634060248545338364
:101430006540AC34638C0550196E130E4E911165E6
:10144000930E010741057695F175AA9503AF4509FD
:101450002EC8930F0002E15E93D5C701F2958C214F
:1014600013F5850009ED93F2350013954700B3821B
:101470005F40335555008D857295AA958C2113F5E3
:1014800075002A98B397A7003305E7417515A25256
:101490000E05429563C9A24C7D13631D030003C36F
:1014A00008001385180013531300630E034A986253
:1014B000AA88910613F5050811C9D307E72063D45C
:1014C0000700D317E7201CE28607050813F505047B
:1014D00011C9D307E72063D40700D317E7205CE2E4
:1014E000860705087D13631D030003C308001385E9
:1014F000180013531300630803469862AA889106E4
:1015000013F5050211C9D307E72063D40700D317E9
:10151000E7201CE686070508C18991C9D307E720A3
:1015200063D40700D317E7205CE6860705083A85F1
:10153000C28563D10542930588008D812E97B385BE
:10154000D50341062E9809BF0347B7808147418BD9
:1015500019C3B337300131473358F840B387E70236
:101560001167F1764107901895659106329793853A
:10157000C5C2BA967D5E524705463383F5003305F2
:10158000E300834805003345C802B38EE6007D17AB
:10159000336515032380AE0033061603E311C7FF3E
:1015A0003308C8409107E35808FC3E9CC15AC1B9B2
:1015B000B3864D0103CE0600631D0E00668681458D
:1015C0006A85EFE0FFC5668681455E85EFE05FC511
:1015D000EDB9FD5663D60A008546B396C601FD16E1
:1015E0004245F2859AC036DE72DAEFE0BFF4F25679
:1015F0001306F00F525E06436303D5002A86B385B7
:101600006B0090A133066D0008A20503E34A93FD29
:101610006DB99C34E38B07D21167F17741079418B9
:101620003697D1071566BA97130606EC0147A94508
:10163000B306E600A837942205078507AA96B4A743
:10164000E318B7FE19B301450DB3B3079C01882316
:10165000B25753052921850C3315F500EFE05FFEE5
:1016600027A0AB00910B81B303450C0099659385CE
:101670004592131E1500F295039F050083423C001E
:10168000131E1F00196F93054F96330FBE0095650B
:101690009385C5B7AA9583CC0500638B0C0E930D7B
:1016A00000029563B3859D419383C3C72EC8850807
:1016B00083C0F8FF910607A7C6FF93D01000868568
:1016C000635313009A858E05B29513D5B7010605AD
:1016D0007A95831E0500154E63C30E1813D58E40F0
:1016E000B28F2106B397A7002A98B28A13FEFE0094
:1016F0003D46631ECE1E42466698BA8B33D6C7005F
:10170000130EF600B39797014285635C0516130527
:1017100088000D81615A2A97330545032A981305DD
:1017200000086349C5177D060A061E961C62D3771A
:10173000F710D306842063C40700D306C620D3F76E
:10174000D710333EC00127A0FF00910FB397C70108
:10175000729893DE4E40E39B5FF97E863A8E428517
:101760006353051A130588000D81615E2A973305BE
:10177000C5032A98E39BF5F53303134063576000D4
:10178000FD127D552E86E394A2F2050C2E8669B9D2
:101790009563930C00029383C3C7E15BFD508508FA
:1017A00083CFF8FF910607A7C6FF93DF1F00FE85D2
:1017B0006353F3019A858E05B29513D5B7010605DB
:1017C0007A9503150500954E63480514135E854010
:1017D000B397C701729813DDF701137EF500930EDE
:1017E0000E01120DB38EAE418A0E9E9E87A70E008B
:1017F000333EC001B397C7011185D3F7E7103D8988
:1018000093DEF7017298920E130E0501330EDE413E
:101810000A0E1E9E1CE287270E003335A000330EF1
:101820000501D3F7E710B397A70021063A88728520
:10183000272EF6FE6353051013088E001358380048
:101840004297330878037298E399C5F63303F3415E
:10185000E35D60F2FD122E86E39312F43DB7B39779
:10186000C701729813FE7E003385CD4193DE3E4062
:1018700033D5A7003305D54106057A95831E0500AB
:10188000A1BD03CD0B00850B331DAD00B3E7A70150
:101890006115A5BD1306F03F6347C60513153E004D
:1018A000414D931B150093FB0B041376F503330690
:1018B0007641D37706D0137605FC5E96D37606D0B4
:1018C0005E951985D3F7D71841050A051E95C3F60D
:1018D000B750C3F7D7001461D3F7D710D3760DD024
:1018E000D3F7D710A9B57285130D00105DBF13D5BE
:1018F000F70113060E011205098E0A061E961C62D8
:10190000D3F7E7103DBD834E0E00050EB39EAE002B
:10191000B3E7D7016115A9B5B397D7017698937E40
:101920007500338EDC410D8533DEC701330EAE40CA
:10193000060E7A9E03150E0041BD834E0800050871
:10194000B39EAE00B3E7D7016115EDB5196E130E66
:101950008E8FF5B4834205000505B392B200B3E75C
:101960005700E115F9B61167410794183697F177DA
:10197000BA9722573EC8850923ACE7088567938745
:1019800007903E9B8257F104938777023ED06F0009
:10199000702709036359B3021C6353AFE7A06309BF
:1019A0000F0021078727C7FF53AFE7A0E3130FFE00
:1019B00033E7C7039164C104130301079A940A072C
:1019C000269776975CCB8A052E9685076F0010299F
:1019D00031C1116641068C182E96717732973AC83C
:1019E000504B184F6353C70032879165C105881863
:1019F0007176AA952E9632C8504E6353C70032872F
:101A00009165C10588187176AA952E9632C858CE70
:101A100018CE58CA12460967014832978345978005
:101A2000A18991C10D4891649308010713850401B0
:101A3000C1044695C69491687177938838F413066B
:101A400047013383D74013074709C6972697958FD9
:101A50002A961378F80F3305D340330ED040BA9747
:101A60001442428763D5A6003387C701182398A381
:101A7000050511068507E315A3FE83594402832B50
:101A800004001D4B93F9190099E1130B00049167B1
:101A9000F174C1079818BA9793844409BE94B76744
:101AA000000007A9078CB7670000856C87A9478CE1
:101AB000530A2921938CCCB7014DA69C717CB38A23
:101AC000AB0183C50A0085E59167717BC107981852
:101AD000BA97930A4B09BE9A856489679384844CAC
:101AE0009387C7E1CA948149B38CFA00BDAC124711
:101AF00089679166BA9703C7B7808D47B377FD02B0
:101B0000C1069018B296137707028A07B697E29734
:101B1000DC4B63D6A70B9167938737F4EA97A697B8
:101B200083CD070063FD6D09D384392119E3D30404
:101B30004A2112478967BA9783C79780A18BB9CB8F
:101B40001567130747C493973D00BA979C63939713
:101B50003D003E974863D3F79710D3F4A4108566F1
:101B6000E68701479386069098633386D70005077A
:101B700053779710910718E207A7C7FF5377F7101D
:101B800027AEE7FEE342B7FE83C70A00050D8A07CA
:101B9000BE9C35B713851D005305292105813315DA
:101BA00035012EC8EFE0DFA993F71D00D3072921E7
:101BB000C245D5D3D307A5205305292169BF69D7CD
:101BC0006685EFE0DFABC9B793F7070E1307000692
:101BD000E39CE7EE11679418F177410736979387F6
:101BE00047090565BA971305C5B7930500243E95C7
:101BF000EFE0FFA8D1BD92470967834DC4003E972F
:101C000083479780B33DB001860D93D6370091830B
:101C1000858B858ABE968D47B386F6028347A7805B
:101C200078247D4D89838D8BBE96F916FD7793B60A
:101C300016009387476BB39DDD00B38BF40005CF8F
:101C4000130580043385AD025834032304008967EB
:101C50009387C7E1138DFDFF3A933386FA00B14EA7
:101C60005E952A8E03470300E3130700330696416F
:101C7000E685EF10F0377D771307C76F2697E347A8
:101C8000A00313080048338809039247034DB400AA
:101C9000338C070163840D021566E2855E85EE864E
:101CA0001306C6B9EFE07FB0130780043387ED0257
:101CB000BA9B130740023387ED023A9C9306000259
:101CC0000947B386B641E314ED029167C107901846
:101CD000B29713074B01B38DE70093874D001303B1
:101CE00041093EC8138A8D001A85DE8513068004DB
:101CF00036D41AD0EF10D02FE28561465E85EF1002
:101D0000302F130D8C0193858B016A866E85EFE071
:101D1000DFD6424593850B036A86EFE01FD6E28546
:101D20006A865285EFE07FD5A256130C4C02938B46
:101D30008B04FD160253CDFAFD7793870770A697A3
:101D40003E87938687041C632107D397F720272CAF
:101D5000F7FEE39AE6FE93870709E393F4FE8567AF
:101D60009387079085097104BE94F247E3C5F9E8AB
:101D70001247856793870790BA973EDAB247F17E9C
:101D8000981803AC8700B767000087A5478DB76731
:101D9000000007A5878DB767000007A0C78DB7674C
:101DA000000087A0078EB767000007A1478EB767BE
:101DB000000087A1878EB767000007A2C78EB767AC
:101DC000000087A2078FB767000007A3478F9167BE
:101DD000C10713834E01BA97338F6700CA88014841
:101DE000956F93020F0863458873116A9818F1790B
:101DF00093070A01BA9793894909D2550965BE9993
:101E000085641305C5E1138604F04E95EF10501E4E
:101E1000938604901307FCFF3307D70293171C0027
:101E2000F9171386C4B70D643ED41304C4E09317A6
:101E30006C003ED64E943297B387C900BA991167A9
:101E400031074A97BAC42257F172941893032700B6
:101E500079573307EC02138D4201925A938D420059
:101E6000FD7CBAC01307E0073307EC02BACA1307B8
:101E7000E0033307EC02BAC8130720043307EC026F
:101E8000BAC613070A0136973A9D13070A01369717
:101E9000BA9D13070D0187A70748BACE22571CE049
:101EA00087A70948FD74330B57015CE09C63BECCE7
:101EB000E2851CE487A709005A851ED05CE487A749
:101EC0004748014A856B2720F41087A749482722F5
:101ED000F410DC63938744103306F4002724F410D5
:101EE00087A749002726F410EFE0FFA13257A25739
:101EF000E2853385E700938744203306F400569546
:101F0000EFE07FA013860C102296E2855685EFE065
:101F10009F9FB25713860C202296D6973E85E28566
:101F20003EDEEFE05F9EB647564F82533EC8C6473F
:101F3000764793840C013ECE956713898732E64736
:101F4000A294930F80431308804C338607011C62D0
:101F50008568938608FEB385D4009CE1B3860901A9
:101F60009C62138548FE26951CE15C62138688FE00
:101F700026961CE2DC629386C8FEA6969CE2338617
:101F8000F7015C629386080EA6969CE2B386F9017F
:101F9000DC621385480E26951CE11C62138688EED0
:101FA00026961CE29C627D769386C8EE0726090081
:101FB00087254900A6961306061E9CE2B388C40036
:101FC000814641453386D5001C620566130606F03E
:101FD0003696469618623306DD00D376E61053F740
:101FE000E510C3F6F568C777F67014E23386DD00B6
:101FF0001CE29106E398A6FCFD769386062E330E2E
:10200000DA000725890085668725C900938606EED4
:10201000B388D400930E0AFE6A866E85EE85EA8642
:102020003383D84172938727030007A70800906283
:10203000D376F510910691089105C3F6E5685377BC
:10204000E510D376D600C7F7F57007A7C5FF27AE12
:10205000D6FED377F70027AEF5FEE313D7FCFD7667
:102060009386063E330EDA0087250901856607252B
:102070004901938606DEB388D400930E0AEEEE85FE
:10208000EA863383D84172930727030087A70800A5
:102090009062D3F6E5105377E5109106910891050B
:1020A000C376F568C7F7F57007A7C5FFD376D600E6
:1020B000D377F70027AED6FE27AEF5FEE313D7FCA5
:1020C000FD769386064E330EDA0007258901856674
:1020D0008725C901938606CEB388D400930E0ADE05
:1020E000EE85EA863383D84172938727030007A7DA
:1020F00008009062D376F510910691089105C3F619
:10210000E5685377E510D376D600C7F7F57007A7D3
:10211000C5FF27AED6FED377F70027AEF5FEE31353
:10212000D7FCFD769386065E8725090207254902BE
:10213000330EDA0093860BBE930E0ACEA696EE8877
:10214000EA853383D6417293072703009C6290612E
:10215000D3F6E5105377E510910591069108C37603
:10216000F568C7F7F57007A7C8FFD376D600D37711
:10217000F70027AED5FE27AEF8FEE314B7FC07251F
:1021800089028725C902138E0C6E93860BAE930EBF
:102190000ABE529EA696EE88EA853383D641729394
:1021A0008727030098629061D376F5109105910618
:1021B0009108C3F6E5685377E510D376D600C7F7E4
:1021C000F57007A7C8FF27AED5FED377F70027AE77
:1021D000F8FEE314B7FC8725090307254903138E8E
:1021E0000C7E93860B9E930E0AAE529EA696EE88A8
:1021F000EA853383D6417293072703009C6290617E
:10220000D3F6E5105377E510910591069108C37652
:10221000F568C7F7F57007A7C8FFD376D600D37760
:10222000F70027AED5FE27AEF8FEE314B7FC07256E
:1022300089031309090493860B8E8725C9FF1303AD
:102240000A9E93080A8EA696B3856640C6959C6141
:1022500098621062D376F510110691061105C3F647
:10226000E5685377E510D376D600C7F7F5700727F2
:10227000C5FF272ED6FED377F700272EF5FEE315F0
:10228000E6FC2A65BAD6C2D49ED2FED0FACCBECE27
:10229000EFE02FE382576A65411AB306FB008AA27A
:1022A000EFE02FE2F2471A65C114B306FB008AA2E1
:1022B000EFE02FE182575A65B386FA008AA2EFE079
:1022C0004FE0F2474A65B386FA008AA2EFE06FDF7B
:1022D000C2470A75B306FB008AA2EFE08FDE664FA5
:1022E0003A65B306EB018AA2EFE0AFDDC2477A653B
:1022F000B386FA008AA2EFE0CFDC82579653664F8E
:1023000006479E973ED08647B386EA018AA23E9F43
:10231000F2472658930600F1BA973ECEC247865F31
:10232000130888049E973EC8938F8FFBF647365755
:10233000E31DDAC0B256725613040420A107B38A13
:10234000C600A646A109E39886B4F1778D650547D6
:1023500093874709F1056313EC3811679418410717
:102360003697BA971247BE9585679387079092462E
:10237000BA9709671307078036979C61A107A105E3
:1023800027ACF7FEE39BE7FEE24785073ECCB2476A
:10239000984793070048B387E7021257BA973ED28F
:1023A000A24762479C33A18BB337F0008507634493
:1023B000F7006FE09FDA916798187179C107BA97B3
:1023C0000564130949093E991305C4B7130604208F
:1023D00081454A95EFD0DFE4B24762471304C4B0A9
:1023E0009C474A944AD03ECEB387E70271474A8B56
:1023F0008149B387E7023E94B767000087A4878CC2
:102400009304F400F24763D4F9006FE05FDF1247F2
:102410008967BA9783C7B78013F70701630607FA7E
:1024200048347C24D246B308F50091E38546116612
:10243000717741068C182E961307470932970328A7
:1024400004000566530700F0FD571306C6473ECF4C
:102450003ECD3ECB3A9681470D4EF17E638AF8D64B
:102460003307F8000C23014332876FF0AFD2131FFC
:1024700027008148B285F2869C623388E601B10567
:1024800027AAF5FE872708007A98850827ACF5FE6D
:1024900087270800910627AEF5FEE3CFE8FC330757
:1024A000D7030D033A963A9E6FF0CFFB95679305DD
:1024B000C7FF938607B23A861305070298619072A8
:1024C0008C621C62D376C7105377B7101106F115D2
:1024D0009106C7F6B768C3F7C770272ED6FEDCE1B2
:1024E000E31EC5FC7D1D130787046FF04FF9751DB2
:1024F00013068004133D1D00330DCD02156613062F
:10250000C6B9E2855E856A96EFE02FAA6FF0DF829A
:1025100005671307C7354697014EC9439166C10643
:10252000801813050782A296AA87130687C593858C
:102530008F269A96930087A1872305480726064889
:1025400018611C62130686FBD376C70053F8770028
:102550005377C708D061D3F7770887A305009106A2
:102560005377C71053F60601D3F606091305850401
:10257000B10527AEC6FE07A6C5FFD3F6C610D4EE3A
:10258000C3F67770CBF77770D4FED3F7C710FCEEA5
:10259000E394C0FA9166C1069018B2969A96986232
:1025A00007AE060107AF4601946EDC6207A88600FD
:1025B00087A8C600D06ED3F3D708D3F7D700D37E51
:1025C000C708D376E8095376C7005378E80153F774
:1025D000C809D3F8C8019386060253F7E600537E74
:1025E000160953761601D3F80701D3F6D300D3F7B3
:1025F0000709537F1601537616094BF8B6E8C3F660
:10260000B6E8D3F7C70127A0E6FF5376B61027A890
:10261000C6FE53F67E004B77A67043760760D373F1
:10262000D6004B77A670D3F6C608D3F31310D3F6B3
:10263000661027A276FEC3F3B7E0CBF7B7E027AE6C
:10264000D6FED3F32310D3F7571027A476FED37307
:10265000E8085377070127ACF6FED3F3331053771E
:10266000471027A676FE27AAE6FEE39A56F2FA86D8
:102670009C62B862F4729CE3BC72D07293870712BA
:1026800053F7E70091065377D70027A4E7F2D86EF7
:102690005377C70027A8E7F6B862D3F7E700D3F768
:1026A000D70027ACF7FAE395E7FCCA7707270111B3
:1026B000050E9CE3CE7727ACE70C13874700D3F7D2
:1026C000E700BCE7CE6727A8F708E3197EE4856733
:1026D000938707900508BE986FF0EFF01167941884
:1026E000410736975255BA970566130606F0BE9510
:1026F000EF10001051B9B767000002CC07A4C78BD8
:1027000045B1130414E0A2971304F01F1167941845
:1027100041073697F175BA9562559385050A228669
:10272000BE95EF10E00C6FE09FA6B3079D016354C8
:10273000F9006FE02FD8814B814D330CA941B3864E
:10274000B401A285368536C8EFE0AFC0C2462AC4C0
:102750003685EFE0EFB022473A95AA9D13873D00FA
:10276000635487016FE04FDA63940B006FE08FD4FE
:1027700063840C006FE04FDBEA8C6FE02FD0EFD268
:102780003FA701118545114502C202C402C602C815
:1027900002CA02CC02CEEF00104B8545370500205F
:1027A000EF00504C93070002371501407C824C002B
:1027B0008D47130505803EC402C6EF0090229307A3
:1027C000C0020C0841453EC802CA02CEEF007008A4
:1027D00085454145EF00F00A85454145EF00300D44
:1027E00005616FD03FA3EFD2BFA079711306C0027D
:1027F00081454800EFD0DFA285450945EF00D04272
:102800004800EF00B011B7770040938747413EC2C0
:102810009387C1843EC4C1473EC6930700083EC8A3
:102820003ECC930700103ECE930700403704024091
:102830003ED0930700023ED24C008D6713054444FE
:102840003ED402CA02D6EF00F009130544440546FF
:102850008945EF00D0100546130544449145EF002B
:102860001010856737E700E0938707802324F7106F
:10287000854513054444EF00500D45616FD09F9985
:10288000597137450010A2D6A6D4CAD2CED0D2CE26
:1028900082E686E48AE28EE012FE16FC1AFA1EF840
:1028A0002AF62EF432F236F03AEE3EEC42EA46E8F0
:1028B00072E676E47AE27EE0EF00701139C10547F6
:1028C00023A2E1809387C18223A007001384C182E1
:1028D0001309F0039384C1841C406370F90C3745DD
:1028E0000010EF00700F03C781829387818261C758
:1028F00001470146930500103715014098A3EF00EA
:10290000501A37250010EF00900C21CDB70700209A
:10291000054723A0E7089387C1821307000498C3E3
:102920009387018323A007001384C18293840183CA
:102930009309F0071389C1841C4063F1F908372516
:102940000010EF00700903C781829387818249C715
:1029500001470146930500103715014098A3EF0089
:1029600050143654A65416598659764A3660A660D5
:10297000166186617272E2725273C2733275A27509
:10298000127682767267E2675268C268326EA26E11
:10299000126F826F6561730020300C401385C13463
:1029A0008605A695EFD07F991C4085071CC09387AC
:1029B00001839C4315B7054705462DBF0C40138581
:1029C000C1348605CA95EFD05F971C4085071CC0AF
:1029D0009C4085079CC08DB705470546A5BFEFD233
:1029E0003F8141112A848545114502C202C4231644
:1029F0000100EF0030274800EF00303E03A5C18002
:102A00004C0023150100335585023714004002C2E3
:102A10007D15688413050480EF00502D1305048094
:102A200093050002EF00503E854513050480EF003A
:102A3000303C41016FD00FFEEFD28FFB4111854535
:102A4000414502C202C402C6EF00F01F93070018FE
:102A50007C82C1473EC64C008D47371501403EC4BD
:102A6000EF00207805469305001837150140EF0068
:102A7000500341016FD00FFAEFD28FF401110945D5
:102A8000EF00D0021129EF001045716513050520F4
:102A9000EF00304A83A5C180375500001305457407
:102AA000EF0090641D2DAA8537550000130545756C
:102AB000EF0090633755000013054576EF00107462
:102AC000A53F1305800CEF007043B7050020930667
:102AD000005009469385C51C1385C134EFD0CFFE45
:102AE000EFD0DF8EEFD05F9A85679387D70E3E9544
:102AF0004205418191471384818063E1A71895675E
:102B00009387C7AE0A053E951C4182873755000062
:102B100013054578EF00906E1305401FEF00103E3F
:102B20001C4099C7375500001305C57CEF00106D98
:102B3000371C002093074C080967BA973EC2938A56
:102B4000C184938CC1369247238407803755000097
:102B50009387418323A007001305457E93878183D4
:102B6000373D002023A0070013844183EF00106944
:102B7000138A8183EA8D83250A0010401440930450
:102B80000048B76700003386C44013850780EF0014
:102B9000B055084083250A00104066953386C4402E
:102BA000EFD09F931C4003270A0093060DA9B3871B
:102BB000F440BA972320FA0018401C40E685998C0F
:102BC000BE9404C010401387C17E13054C08EFE08B
:102BD0002F819387418288C3138BC17E1C400327BA
:102BE0000B009385C1369384C17E998F1CC0938658
:102BF000018323A006001389418293870183130672
:102C0000F03F1305F00F94436371D6089443930784
:102C10000040E38AF6F21040BA951385C1363AC4F3
:102C2000EF003048DC482247832509009444D04413
:102C30003765000013058581EF00104B93870182F3
:102C40009843138B018239CB85466305D7129C408C
:102C50009DF3C5BD375500001305057965BD375592
:102C600000001305C5797DB5375500001305857A39
:102C700055B5375500001305457B69BD3755000034
:102C8000232004001305457C71B59443AE9694222D
:102C9000E39EA6F69443850694C3B5B79C44C5DB72
:102CA000DC44E356F0FA83270900E352F0FA376573
:102CB000000013054586EF00705413870DA9814667
:102CC0008327090063E8F6049387C18223A00700E5
:102CD0001389C182832709001307F0036372F70683
:102CE00023A20180930700042320F9008327090011
:102CF0001307F0076374F706B707002023A007083F
:102D0000EFF0FFA7EFF03FAEC844D139854723204D
:102D1000FB0035BF83170700031627009305E10169
:102D20001385C134B29795879387F77F36C63AC427
:102D3000FC87EFD06FDCB24622478506110749B702
:102D4000832509001385C1348605D695EFD0EFDEC3
:102D50008327090085072320F900ADBF83250900DB
:102D60001385C1348605D695EFD02FDD8327090062
:102D700085079DBF032709006355E0041385C1340F
:102D8000EFD06FD683270900E34AF5FE138B0DA918
:102D9000014783270900E37CF7EA83170B008316BA
:102DA0002B009305E1011385C134B697958793876E
:102DB000F77F3AC4FC87EFD02FD42247110B0507C9
:102DC000C9BF37150040814513050580EF0050024B
:102DD00037050240814513054544852E93870182BE
:102DE00023A00700ADB5B71702409843B706FFF020
:102DF0001367170098C3D843758FD8C39843B70695
:102E0000F7FEFD16758F98C39843B706FCFFFD16B5
:102E1000758F98C3D843B70601FFFD16758FD8C3C9
:102E20009843B70600ECFD16758F98C33707FF006F
:102E300098C723A60702B746024003A70680136778
:102E4000070123A0E680D843B706C1FFFD16D8C30B
:102E5000D843D8C3D84313670740D8C3D843758F26
:102E6000D8C3D843B7060001D8C39843558F98C339
:102E7000984393166700E3DD06FED843B716024079
:102E8000719BD8C3D84313672700D8C32147DC42BE
:102E9000B18BE39EE7FE8280B7160240D84211460E
:102EA000318B9387C1806305C70021466308C70241
:102EB00037177A001307072098C337170240584383
:102EC00011839376F7003707002013070700369722
:102ED000142398433357D70098C38280D842D442F2
:102EE000416649833D8BF18E1306270015CF3D4780
:102EF000630FE6024147630FE602454781456313CE
:102F0000E6004146A1E23747024003270780418B94
:102F10000DC737177A00130707203306C70290C37F
:102F2000C9DD9843058349BF81454946E1BF8545D1
:102F30003546C9BF81453D46F1B737173D001307F8
:102F40000790E1BF3715024058559316F7005855C2
:102F500063DF060411833D8B9306170037177A0051
:102F6000130707203357D70298C35455A182BD8A4F
:102F70008DE295463307D702058398C33717024081
:102F8000585794433D8B050733D7E60298C39843BF
:102F900069B705456394A600E546E9BF3D456396DC
:102FA000A600D1463387E602C9BF8906E5BF3D8B3F
:102FB0009306170037177A00130707203357D702F5
:102FC000F1B701A097E1FF1F9381C18B175100203A
:102FD0001301410317450000130545B197D5FF1FA5
:102FE000938545021386018263FAC500832205009A
:102FF00023A0550011059105E3EAC5FE1385018262
:1030000097150020938545C96377B50023200500F7
:103010001105E36DB5FEFD42739002BCAD427390A5
:103020004280B7620000938282087390023097D288
:10303000FFFF938262FD93E2320073905230EFF013
:103040009FDA97020000938262A373901234730098
:103050002030B7760040056783A7064079173317FD
:10306000A7001347F7FFD0417D8F9C41D18F90453A
:10307000D18FD045D18FB397A700D98F23A0F64029
:10308000828085473395A70089C937770040832719
:1030900007405D8D2320A7408280B777004003A7BB
:1030A00007401345F5FF798D23A0A74082808567EF
:1030B0003395A70089C937770040832707405D8D86
:1030C0002320A7408280B777004003A7074013451D
:1030D000F5FF798D23A0A7408280B7F7FF1F03A5D6
:1030E000477082801C4161773D0794517D8F9C45DC
:1030F000D58F9449D58FD449D58F944DD58FD44D44
:10310000D58FD451D58F9455D58FD98F1CC1DC451F
:103110005CC19C411CC5DC415CC58280232005004C
:10312000232205002324050023260500232805006B
:10313000232A0500232C0500232E05002320050249
:10314000232205022324050282801C4189C593E7BE
:1031500017001CC1828041677917F98FDDBF1C41C0
:1031600001C6DD8D0CC1828093C5F5FFFD8DDDBFED
:103170009317350063DA0700B707024083A70740BB
:103180007D8D3335A00082809317250063D707001B
:10319000B707024083A7074DE5B7B70702409C4336
:1031A000C5B79317350063D70700B707024023A2BE
:1031B000A74082809317250063D70700B707024016
:1031C00023AAA74C8280B7070240C8C38280EFD2EF
:1031D0002F82793F6FD00F84EFD28F81D9376FD094
:1031E0006F839C4513F7070113F8F70001C7D84117
:1031F0003368E8008E2113F7F50F39C31841814673
:10320000854E3D4F930F800293028004214E3396EA
:10321000DE00B3F8C500631116039398260033133C
:103220001F011343F3FF3377E300B318180133E7AB
:10323000E800639FF70550C98506E39AC6FD18C1EB
:103240001307F00F6375B70454412146854E3D4F77
:10325000930F800293028004414EB398CE0033F75F
:1032600015016392E8021317260001173313EF00CC
:103270001343F3FFB376D3003317E800D98E639D71
:10328000F701232A15010506E319C6FD54C1828002
:10329000E39457FA10C94DB7E39757FE2328150159
:1032A000DDB719C20CC982804CC9828023AEA182CD
:1032B0008280371702405C439146B18B6385D7000B
:1032C000A1466382D706B7177A00938707201CC1EF
:1032D000371602405C42370700201307070191832D
:1032E000BD8BBA9794231C41B3D7D7005CC154421D
:1032F000A1829D8ABA969422B3D6D70014C55442AF
:10330000AD829D8A36971823B3D7E7005CC5584233
:103310003983937637001387018136971823B3D703
:10332000E7021CC982805C435843C166C983758F1C
:10333000B7F6FF1F83A6C670BD8B890713961601CB
:1033400063480600C54601466392D702C94739A8BB
:103350008946638FD702BD46638ED702C146638E0E
:10336000D702C54601466393D700C1471DEF3747D3
:10337000024003270780418B05C737177A001307E0
:103380000720B307F7021CC121D61C41858381B7F2
:1033900001466DBF0546B547D1BF0146BD47F9B7E8
:1033A00037173D0013070790E9BFB7150240D855FE
:1033B0009316F700D85563DF060411833D8B9306FF
:1033C000170037177A00130707203357D70218C1A1
:1033D000D455A182BD8A8DE295463307D702058375
:1033E00018C137170240585714413D8B050733D792
:1033F000E60218C1184171B785456394B600E546E9
:10340000E9BFBD456396B600D1463387E602C9BF22
:103410008906E5BF3D8B9306170037177A0013071F
:1034200007203357D702F1B799C5371702405C4BD5
:103430005D8D48CB8280B7170240D84B1345F5FF0E
:10344000798DC8CB828099C5371702401C4F5D8D9E
:1034500008CF8280B7170240984F1345F5FF798D4A
:1034600088CF828099C5371702405C4F5D8D48CF69
:103470008280B7170240D84F1345F5FF798DC8CF2A
:1034800082801A218D6793870704B6217D8F9E2144
:10349000D58FD621D58FF621D58F9625D58FB625F8
:1034A000D58FD625D58FF625D58FD98F1EA15A2D2C
:1034B000FD779387F77FF98F5EAD9E291EA98280E5
:1034C0001E2189C593E707041EA18280C207C1831C
:1034D00093F7F7FBC207C183C5BF4EA582804A257B
:1034E00082800A256D8D3335A000828037F7FF1F5B
:1034F000032747701E21914611833D8BC207711728
:10350000C18363E6E60237370140930607C0630EC6
:10351000D50013070740630AE500375701409306BB
:1035200007C06304D500631AE5000967D98F3737F0
:103530000140130707C06302E50437070040630E2C
:10354000E50213070740630AE502371700409306B8
:1035500007806304D502130707C06300E50237370D
:10356000014013070740630AE500375701409306FF
:1035700007C06304D5006318E50093F7F7F8BA2194
:10358000C207C183D98F37170040630CE5001307CA
:1035900007406308E50093F7F7CFFA21C207C1831C
:1035A000D98F1EA1DE215EB59E211EB5B737014021
:1035B000138707C0630EE50093870740630AF50091
:1035C000B7570140138707C06304E5006314F50093
:1035D0009C251EB985475EA98280FD575EA12310F8
:1035E0000500231305002311050023040500828034
:1035F0001E2189C593E717001EA18280C207C183DF
:10360000F99BC207C183CDBF5E21C207C18393F777
:10361000F7F8C207C1835EA15E21DD8D4EA18280D5
:10362000EFC21FBD1629F577FD17F58FF621DA25B4
:103630007971D58F1EA95625FD779387379FF58F12
:10364000D6212A842EC6D58F9625D58FB625D58F1F
:103650005EA55E29C207C18393F7F7CFD98F5EA914
:1036600068088139B747014093870780B245631ED8
:10367000F402A2576547B387E702984193064006D4
:103680000A07B3D7E70233D7D702B3F7D702120737
:10369000920793872703B3D7D702BD8BD98FC20771
:1036A000C1831EA445616FC0FFB69257E1B791C5B3
:1036B0005E250967D98F5EA582805A25F977FD17A7
:1036C000F98FD5BF93F5F51F4EA182800A216D8D2C
:1036D0003335A000828083A7C18037177A00130793
:1036E0000720B3D7E70293F7F70F2381F18413077D
:1036F000803EB387E7022390F1848280B7F700E031
:10370000D8438146799BD8C303D701843306A702E7
:1037100090CBD4CB98431367070198C398431367A2
:10372000170298C3D843058B75DF9843799B98C3DC
:103730008280EFC2FFAB01112A8485453705040062
:103740001533854521450133930700407C823715A9
:1037500001408D473EC44C00E147130505C03EC6FD
:10376000EFF03FA822C837540040B70708000C0804
:10377000130504803ECC02CA231E01005535854541
:10378000130504802D3705616FC0DFA8EFC2BFA409
:10379000B7540040AE893289014493840480634564
:1037A00024014A856FC07FA6930500042685393F12
:1037B00065DDB38789008385070026850504C2057A
:1037C000C1810937E9BF138741811C43B7460020F7
:1037D000938646C93E95636BD500B77600209386E5
:1037E000460063E5A60008C33E858280FD57EDBF15
:1037F000B3C7A5008D8B3307C50081E78D4763ED07
:10380000C700AA87637EE508942185078505A38FF5
:10381000D7FEE3EBE7FE828093763500AA8789CA5C
:10382000942185078505A38FD7FE93F63700C5BF82
:103830009376C7FF138606FE63F0C70683A30500D1
:1038400083A2450083AF850003AFC50083AE0501A9
:1038500003AE450103A3850183A8C50193854502F5
:1038600023A0770003A8C5FF23A2570023A4F701D4
:1038700023A6E70123A8D70123AAC70123AC670029
:1038800023AE17019387470223AE07FF75B7904118
:103890009107910523AEC7FEE3EBD7FEE3E6E7F61B
:1038A000828063F1A504B386C500637DD50293458C
:1038B000F6FF8147FD176393F50082803387F6009A
:1038C000034807003387C7002A9723000701DDB7A5
:1038D0003387F50014233307F500850714A3E31994
:1038E000F6FE82808147E5BF39713EDA2ED232D4AE
:1038F00036D63AD842DC46DE9387818122CC80439B
:1039000026CA06CEAA8409C41C4C99E32285ED2957
:103910000C4454102686228536C6EF007012F24001
:103920006244D24421618280011126CA4AC806CE6F
:1039300022CC4EC652C4AA842E8901C51C4D91E3E7
:10394000E1219C4C804499E326857D29973700002E
:1039500093870712631BF402C0405E24A18BB1C79A
:103960001C48A1C7FD59294A1C4483450900FD177D
:10397000B1E91CC463DD07062286A94526856120BE
:10398000FD576308F502294535A097370000938756
:1039900027106314F4008044C9B797370000938759
:1039A000270BE31CF4FAC0444DBFA2852685112ADB
:1039B00055D97D55F2406244D2444249B249224A27
:1039C000056182801CC4050963D70700184C63CACF
:1039D000E700638845011C401387170018C08CA3BB
:1039E00061B7228626850520E31035F9D9B71C403A
:1039F0001387170018C0294798A371B7938781814F
:103A0000AA85884315B7011122CC26CA4AC806CE1A
:103A10004EC6AA842E89328401C51C4D91E3ED2641
:103A2000973700009387C7046317F406C0401C4C07
:103A30001CC45E24A18BC1C31C48B5CF1C480840E0
:103A40009379F90F1379F90F1D8D5C486346F500E2
:103A5000A2852685692C25E51C440505FD171CC497
:103A60001C401387170018C0238037015C48638807
:103A7000A7005E24858B81CBA9476316F900A28538
:103A80002685B5240DEDF24062444A85D244424970
:103A9000B2490561828097370000938767FF6314FE
:103AA000F400804469B797370000938767FAE31002
:103AB000F4F8C044ADBFA2852685212041D17D59AF
:103AC000D9B741119387818126C2844322C44AC059
:103AD00006C62A892E8489C49C4C99E326852D2606
:103AE000973700009387C7F8631BF402C0400317A1
:103AF000C40093170701C18393F68700ADEA93F6DC
:103B0000070195EEA5472320F900136707045AA47F
:103B10007D55B24022449244024941018280973748
:103B200000009387E7F66314F4008044C9B7973721
:103B300000009387E7F1E31CF4FAC0444DBF918B7A
:103B40009DC34C5889C9930744046384F5004A8592
:103B50003123232A04025E242322040093F7B7FDB5
:103B60005EA41C481CC05E2493E787005EA41C482A
:103B700099EB5E241307002093F707286385E7007D
:103B8000A2854A85A1215E2413F717001DC35C4856
:103B900023240400B307F0401CCC1C480145B5FBAE
:103BA0008317C40013F707082DD793E707045EA413
:103BB00085B7898B014791E3584818C4F9BFDE25C2
:103BC000011122CC26CA06CE4AC84EC613F787007A
:103BD000AA842E8479EBD841634DE000B841634A52
:103BE000E0000145F2406244D2444249B2490561D5
:103BF000828058547DD703A904009396370123A0EF
:103C0000040063DB060670485E24918B99C75C4014
:103C10001D8E5C5899C33C401D8E5C540C508146EF
:103C200026858297FD575A24631DF5009440F54779
:103C300063E8D706B70740208507B3D7D700858B41
:103C4000A5C31C48232204001CC09317370163D866
:103C50000700FD576314F5009C4091E368C84C5879
:103C600023A02401BDDD930744046384F500268569
:103C7000F526232A0402B5B70C5001468546268551
:103C80000297FD572A86E311F5F89C40B5DF75478A
:103C90006385E70059476393E70423A0240191B7A4
:103CA000136707045AA47D5535BF83A90501E38A2C
:103CB00009F203A905008D8B23A035013309394191
:103CC000014791E3D84918C4E35D20F11C540C501E
:103CD000CA864E86268582976347A0005E2493E7B6
:103CE00007045EA4C9B7AA993309A940F1BF9C494A
:103CF000B9CF011122CC06CE2A8411C51C4D81E713
:103D00002EC61922B24597370000938767D6639B6A
:103D1000F5004C408397C50095C722856244F24068
:103D2000056171BD97370000938787D66394F500CE
:103D30000C44CDB797370000938787D1E39CF5FCFF
:103D40004C44C9BFF240624401450561828001458F
:103D50008280411122C406C62A844EA572A5232062
:103D6000050023220500232405002322050623281D
:103D70000500232A0500232C050021468145130553
:103D8000C505EFC0EFC997170000938707B25CD055
:103D900097170000938727B41CD4971700009387C8
:103DA00007B85CD497170000938767BA00D01CD877
:103DB000B24022444101828097050000938565F35B
:103DC000A9A2411126C2130680069384F5FFB3848D
:103DD000C4024AC02E8922C406C6938544071D2604
:103DE0002A8401CD2320050023222501310508C4A2
:103DF000138684068145EFC0AFC22285B2402244BB
:103E000092440249410182801C4DADE3411106C636
:103E100022C497070000938767FA1CD59387C18156
:103E20009C43232405042326050423280504631446
:103E3000F50085471CCD2A841D2848C02285052809
:103E400008C422852D2048C44840014691451137B9
:103E500008440546A545F53D48440946C945D53DB4
:103E600085471CCCB24022444101828082804111AE
:103E70009387C18126C284434AC006C69C4C22C493
:103E80002A8999E326854937938484048044DC4059
:103E9000FD1763D607009C40B9CF8440C5BF031708
:103EA000C40039E7C17785072322040623200400D4
:103EB00023220400232404005CC423280400232AB2
:103EC0000400232C0400214681451305C405EFC0DE
:103ED0002FB5232A0402232C0402232404042326BE
:103EE00004042285B2402244924402494101828066
:103EF0001304840671BF91454A85E13588C051FDA0
:103F0000B1472320F9000144E9BF797122D44AD096
:103F100052CC56CA5AC85EC606D626D24ECE2A8A79
:103F2000AE8A130485040149054BFD5B09ECB250D0
:103F300022544A8592540259F249624AD24A424B6B
:103F4000B24B45618280044483294400FD1963D447
:103F500009000040E1BFDE24637BFB008397E4009F
:103F600063877701A6855285829A3369A900938475
:103F70008406E9BF1971A6DAAE848395E500A2DC58
:103F800086DE328463DB0500DE2423A0060093F77F
:103F9000070885E7930700401DA0300836C6EF00EC
:103FA0009021B246E34205FE7247BD67F98F7977EB
:103FB000BA9793B717009CC2F1BF930700041CC0C7
:103FC000F6506654D654014509618280DE25011100
:103FD00022CC06CE26CA4AC8898B2E8489CF930765
:103FE00074041CC01CC885475CC8F2406244D244BB
:103FF00042490561828074003000AA84A53FA24531
:104000002A892685012219E98317C40013F707209E
:1040100069FFF19B93E727005EA4D1B797070000E3
:104020009387C7D99CD45E2408C008C893E70708C3
:104030005EA4A2475CC8B24781CF8315E400268501
:10404000EF00901A11C55E24F19B93E717005EA460
:104050005E243369F9002316240141BFDDC183A723
:10406000C5FF411122C406C626C21384C5FF63D30F
:1040700007003E94AA84EF00F01E938741849C437E
:1040800081EF2322040023A281842244B2402685AA
:10409000924441016F00301D637EF40014403307E9
:1040A000D4006396E7009843DC43369718C05CC0A1
:1040B000D9BFBA87D84319C3E37DE4FE944333865E
:1040C000D700631F86001040B29694C33386D70092
:1040D000E31DC7FA10435843B29694C3D8C375B7CB
:1040E0006375C400B1479CC04DB71040B306C4000F
:1040F0006316D70014435843B29614C058C0C0C3C7
:1041000069B78280011126CA93843500F19806CEE2
:1041100022CC4AC84EC6A104B14763F3F404B144AB
:1041200063E2B4042A89EF00F01393874184984333
:104130003A8439E0938781849C4391E781454A859D
:10414000152F23A4A184A6854A852D27FD5963191F
:104150003507B1472320F9004A85EF00D01029A088
:10416000E3D004FCB1471CC10145F2406244D24493
:104170004249B249056182801C40858F63CF0702A6
:10418000AD4663F6F6001CC03E9404C031A05C400E
:104190006313870223A2F1844A85EF00D00C130534
:1041A000B4009307440061993307F5405DDF3A940A
:1041B000898F1CC05DBF5CC3C5B72287404095BFD7
:1041C000130435007198E30285FCB305A4404A85C9
:1041D0005525E31C35FBB5BF1C46FD171CC663DA2D
:1041E0000700184E63C5E700A9476394F5006FF018
:1041F0009F811C422E851387170018C28CA38280D2
:10420000011122CC26CA4AC84EC652C406CE2A89FB
:10421000AE893284B304D6007D5A631494000145FC
:1042200001A80C204E864A85453F0504E31745FF4B
:10423000F2406244D2444249B249224A0561828036
:10424000357122CD26CB4AC94EC706CF52C556C3BB
:104250005AC1DEDEE2DCE6DAAA89AE84328936842F
:1042600009C51C4D99E3EFF03FBA973700009387DB
:1042700027806397F40C83A44900DE24A18BFDC33F
:104280009C48EDC393070002A304F10293070003C7
:1042900002D22305F10222C6930B5002973A000086
:1042A000938A0A81054C294B4A841C2099C3639E3A
:1042B000770DB30C2441638D0C00E6864A86A685F3
:1042C0004E853D3FFD57630FF51C9256E69636D25C
:1042D0001C206389071CFD571309140002C802CE75
:1042E0003ECA02CCA309010482D4834509001546C5
:1042F0005685A92F13041900C24751E913F7070186
:1043000009C713070002A309E10413F7870009C7CF
:104310001307B002A309E104834609001307A002B2
:10432000638FE606F2474A848146254618209305A6
:104330001400130707FD6377E60AB5CA3ECE85A8C9
:10434000972700009387C7746395F40083A48900BE
:104350002DB7972700009387A76FE390F4F283A40B
:10436000C90021BFA6854E85EFF0AFF501DD7D5573
:10437000FA406A44DA444A49BA492A4A9A4A0A4BF4
:10438000F65B665CD65C0D618280050439BF33053F
:1043900055413315AC00C98F3EC82289B9B73247A1
:1043A00093064700184336C6634707023ACE1820E3
:1043B0009307E002631DF70418309307A002631B04
:1043C000F702B2470904138747009C433AC663C10A
:1043D00007023ECA2DA83307E04093E727003ACEF4
:1043E0003EC8F1B7B387670385462E84BA973DBFB1
:1043F000FD57C5B7050402CA8146814725461820E6
:1044000093051400130707FD6374E606F9F20C2008
:104410000D46172500001305256A0D2D11CD972790
:104420000000938767691D8D93070004B397A70069
:10443000424505045D8D2AC80C2019461725000049
:104440001305C567130914002304B102012535C102
:1044500097C7FFFF938707BB95E74247B24713779C
:10446000071009CF91073EC69257D2973ED22DBD75
:10447000B387670385462E84BA9751B79D07E19BA2
:10448000A107D5B77800970600009386A6D72686A1
:104490000C084E8597000000E7000000FD572A8AAF
:1044A000E314F5FCDE2493F70704E39207EC1255BE
:1044B000C1B57800970600009386C6D426860C08FE
:1044C0004E85012AE1BF797156CA9C49BA8A98453E
:1044D00022D426D24ECE52CC06D64AD05AC85EC678
:1044E000AA892E84B284368A63D3E700BA879CC037
:1044F0000347340419C385079CC01C4093F7070287
:1045000081C79C4089079CC0032904001379690076
:10451000631A0900130B9401FD5B5C449840998F6A
:10452000634CF9041C408346340493F70702B33606
:10453000D000A5EB13063404D2854E85829AFD5730
:104540006303F5041C4011469840998B5444814400
:104550006397C700B384E64063D3040081441C44DE
:1045600018486354F700998FBE94014969047D5B34
:1045700063982405014509A885465A86D2854E854B
:10458000829A631E75017D55B2502254925402598D
:10459000F249624AD24A424BB24B456182800509D8
:1045A000ADBF3307D40013060003A301C7040347BC
:1045B000540493871600A2978906A381E7049DBF40
:1045C00085462286D2854E85829AE30E65FB0509D3
:1045D00045B7797122D426D24AD04ECE06D652CCD7
:1045E00056CA5AC8B689942D930790063289AA8470
:1045F0002E8413863504638DF60263E2D706930793
:1046000080056386F61863EDD700638E0620930756
:104610003004638EF60A930A24042301D404C9A04B
:10462000930730066385F60A93074006E395F6FE86
:104630001C40084393F6070893054500C5C61C4176
:104640000CC363D807001307D002B307F040A301DF
:10465000E404972600009386E646294765A8930759
:1046600000076382F61663E5D7029307E0066389C5
:10467000F6189307F006E390F6FA0C401C4313F883
:104680000508138547006307080608C39C4385A8EF
:1046900093075007E383F6FE930780076389F612BA
:1046A00093073007E399F6F61C43D0418145938682
:1046B000470014C383AA07005685492E01C5330558
:1046C000554148C05C401CC8A301040461A81C43B8
:1046D000930A2404938647009C4314C32301F404E3
:1046E0008547D5B793F607041C410CC3B9DAC20756
:1046F000C18781BF93F5050408C3C9D99E23130759
:10470000F0066387E60E972600009386A63B2947AE
:10471000A30104044C400CC463C5050008406D9916
:1047200008C099E3B28A89CDB28AB3F5E702FD1ACF
:10473000B6958C212380BA00B3D5E70263F0E70C6D
:10474000A147631EF7001C40858B91CB58401C4845
:1047500063C7E70093070003A38FFAFEFD1A330631
:10476000564110C84E87CA867000A2852685EFF094
:104770009FD57D5A631D450B7D55B25022549254EE
:104780000259F249624AD24A424B45618280A38271
:10479000D504972600009386E6320C40084313F8B0
:1047A00005081C411105630D080208C313F7150025
:1047B00001C793E505020CC04147B9FB0C4093F5D6
:1047C000F5FD0CC0B1B79C4193E707029CC193076C
:1047D0008007A302F404972600009386E62F75BF96
:1047E00013F8050408C3E30308FCC207C1837DBFB7
:1047F000972600009386062D214719BFAE8735B74F
:1048000094411C43CC4913F80608138547006306FE
:10481000080008C39C438CC339A008C393F6060460
:104820009C43F5DA8EA323280400B28A25BF1448DE
:104830005686CA8526858299E30045F51C40898BFA
:104840008DE7B2474844E35AF5F23E853DB78546C9
:104850005686CA8526858299E30065F3050A5C447D
:104860003247998FE345FAFEE9BF014A930A940162
:104870007D5BF5B7411122C42A842E8597F7FF1F6F
:1048800023AA074006C6EFE01FF4FD576319F500A1
:1048900097F7FF1F938707409C4391C31CC0B2400A
:1048A000224441018280411122C42E848395E50077
:1048B00006C65D2A634905007C48AA977CC8B240B9
:1048C0002244410182805E247D777D17F98F5EA4AA
:1048D000FDB7DE25011122CC26CA4AC84EC606CE37
:1048E00093F70710AA842E843289B68991C78395DD
:1048F000E500894601460D225E247D777D17F98FFC
:104900005EA48315E4006244F240CE864A86B24932
:1049100042492685D244056125A8411122C42E842E
:104920008395E50006C6CD28FD575A24631AF50085
:10493000FD77FD17F98F5EA4B240224441018280C9
:104940008567D98F5EA468C8C5BF8395E50025A893
:10495000411122C42A842E85B285368697F7FF1F1F
:1049600023AA073206C6EFE07FE2FD576319F50080
:1049700097F7FF1F938707329C4391C31CC0B24037
:10498000224441018280411122C42A842E8597F756
:10499000FF1F23A1073006C61122FD576319F5003A
:1049A00097F7FF1F9387072F9C4391C31CC0B2400A
:1049B000224441018280411122C42A842E85B2857D
:1049C00097F7FF1F23A8072C06C6CD20FD576319B4
:1049D000F50097F7FF1F9387E72B9C4391C31CC0FB
:1049E000B240224441018280411122C42A842E8592
:1049F00097F7FF1F23A0072A06C6C920FD57631992
:104A0000F50097F7FF1F9387E7289C4391C31CC0CD
:104A1000B240224441018280411122C42A842E8561
:104A2000B285368697F7FF1F23A6072606C6792884
:104A3000FD576319F50097F7FF1F9387A7259C4340
:104A400091C31CC0B24022444101828093F5F50F0E
:104A50002A966314C500014582801C21E38EB7FEAF
:104A60000505C5BF82808280411122C42A842E851B
:104A7000B285368697F7FF1F23AE072006C6B928F2
:104A8000FD576319F50097F7FF1F9387A7209C43F5
:104A900091C31CC0B240224441018280930780052B
:104AA00017F7FF1F2328F71E7D5582809307800587
:104AB00017F7FF1F2320F71E7D558280930780057F
:104AC00017F7FF1F2328F71C0145828093078005F5
:104AD00017F7FF1F2320F71C7D5582809307800561
:104AE00017F7FF1F2328F71A7D5582800C2B000033
:104AF000542C00005E2C0000682C0000722C00007A
:104B00000000003F7D1B443FD4D0313EB28F703F48
:104B10005C1C7C3F441DAF3ED7B35D3FBB8D243F43
:104B2000A8845B3FD8B9613FDD1A733F81BA7B3FF0
:104B300041DA7E3FFDC87F3F65F97F3F8DFF7F3FB4
:104B4000FEB5033FDA86F13E0273A03E74473A3E5B
:104B50001DB0C13D86CB273D14A1683C327B723B22
:104B600000008030FD445730F3043530F037183002
:104B700044AC000080BB0000007D0000000000008D
:104B8000000000000000000000000000010203041B
:104B900006080A0D0405060708090B0DA0C17F3F92
:104BA00055CF7D3F89EE793FCB26743F5E836C3FC6
:104BB0002413633F81E8573F34194B3F35BE3C3FD8
:104BC0003CAA323DA8A8053E58A25D3E1CF6993E7F
:104BD00015EFC33E506AEC3E788C093FCAD71B3FA5
:104BE0007BF32C3F0000803F0000803F0000803FAF
:104BF0000000803F0000803F0000803F55CF7D3F98
:104C00005E836C3F34194B3F000000000000000041
:104C10000000000000000000000000000000000094
:104C2000A8A8053E15EFC33ECAD71B3F05050404DF
:104C3000050504010403010105060601040404013D
:104C400004030101000000000000803F8C65583E15
:104C50009DE6493FAE67BB3E294C223F0000003F26
:104C60000000003F294C223FAE67BB3E9DE6493F16
:104C70008C65583E0000803F0000000000000000EE
:104C8000000080BF174521C0BA748AC0F52FCBC081
:104C90004FCC08C18F712EC1903F56C1000080C11A
:104CA0001BC495C1D35AACC1D3B5C3C1FFC8DBC1C6
:104CB000EF89F4C1CDF706C204F913C20000000069
:104CC0000000803F17452140BA748A40F52FCB4041
:104CD0004FCC08418F712E41903F564100008041DA
:104CE0001BC49541D35AAC41D3B5C341FFC8DB4186
:104CF000EF89F441CDF7064204F9134218452142E9
:104D0000DFD82E4281B13C426CCC4A424627594200
:104D1000E8BF67425794764261D18242BA748A42B0
:104D20006D339242BF0C9A420000A2428A0CAA4202
:104D3000C331B242176FBA42FEC3C242F52FCB4213
:104D400080B2D3422A4BDC4282F9E44220BDED42DC
:104D50009C95F6429882FF42DB4104434FCC0843C6
:104D60007D600D433DFE114368A51643D8551B4396
:104D7000690F2043F9D12443659D29438E712E4349
:104D8000554E33439A33384342213D433017424313
:104D900049154743721B4C4392295143903F564358
:104DA000545D5B43C7826043D1AF65435EE46A43B1
:104DB00057207043A86375433CAE7A43000080439C
:104DC00070AC8243655C8543D60F8843BAC68A437C
:104DD00008818D43B73E9043C0FF92431BC4954367
:104DE000BF8B9843A5569B43C5249E4317F6A0430B
:104DF00096CAA34339A2A643FA7CA943D35AAC432B
:104E0000BB3BAF43AD1FB243A406B54397F0B743D6
:104E100082DDBA435ECDBD4325C0C043D3B5C34395
:104E200060AEC643C8A9C94306A8CC4313A9CF4363
:104E3000EAACD24388B3D543E5BCD843FFC8DB43D3
:104E4000CED7DE4350E9E1437FFDE4435614E84307
:104E5000D22DEB43ED49EE43A268F143EF89F443D1
:104E6000CFADF7433CD4FA4334FDFD43599400449D
:104E7000592B024499C30344155D0544CDF70644FC
:104E8000BE930844E6300A4445CF0B44D76E0D4428
:104E90009C0F0F4490B11044B454124404F91344CD
:104EA000809E154426451744F3EC1844E7951A44B0
:104EB00000401C443CEB1D449A971F441845214474
:104EC00001010101020203030302000006060606B7
:104ED0000606080A0C0E1014181C20262E343C441A
:104EE0003A36000C0C0C0C0C0C1014181C2028303A
:104EF00038404C5A02020202020006060606060666
:104F0000080A0C0E1014181C20262E343C443A3685
:104F100000060606060606080A0C0E1012161A20CF
:104F2000262E363E464C2400060606060606080ACD
:104F30000C0E1014181C20262E343C443A36000463
:104F40000404040404060608080A0C1014181C22A1
:104F50002A32364C9E0004040404040406060608A3
:104F60000A0C1012161C22282E3636C00004040427
:104F70000404040606080A0C1014181E262E3844D1
:104F800054661A00060606060606060606080808FF
:104F90000A0A0A0C0C0C0E0E0E1212121818181E09
:104FA0001E1E282828121212000000000C0C0C04EF
:104FB00004040808080C0C0C101010141414181811
:104FC000181C1C1C242424020202020202020202F7
:104FD0001A1A1A000606060606060606060606063B
:104FE0000808080A0A0A0E0E0E1212121A1A1A20BD
:104FF00020202A2A2A1212120000000006060606A5
:1050000006060606060808080A0A0A0C0C0C0E0E0C
:105010000E1212121818182020202C2C2C0C0C0CFC
:105020000000000006060606060606060608080832
:105030000A0A0A0C0C0C0E0E0E1212121818181E68
:105040001E1E282828121212000000000404040466
:10505000040406060404040606060808080A0A0AE8
:105060000C0C0C0E0E0E1212121616161E1E1E38E8
:10507000383800000404040404040606040404068A
:1050800006060606060A0A0A0C0C0C0E0E0E101076
:10509000101414141A1A1A424242000004040404A0
:1050A000040406060404040606060808080C0C0C92
:1050B0001010101414141A1A1A2222222A2A2A0C46
:1050C0000C0C000006050505060505050605070389
:1050D0000B0A00000707070006060603080805007C
:1050E0000809060C0609090906090C060F1200003A
:1050F000060F0C00060C0906061209000909060C29
:105100000909090909090C06121200000C0C0C000F
:105110000C0909060F0C0900040404040404040427
:10512000040606060808080A0A0A0C0C0C0E0E0EE5
:105130001212121818181E1E1E28282812121200E9
:105140000808080808080808080C0C0C10101014AF
:1051500014141818181C1C1C242424020202020215
:10516000020202021A1A1A000404040404040404C9
:10517000040606060606060808080A0A0A0E0E0EA7
:105180001212121A1A1A2020202A2A2A1212120087
:105190000404040404040404040606060808080AB7
:1051A0000A0A0C0C0C0E0E0E1212121818182020DF
:1051B000202C2C2C0C0C0C00040404040404040407
:1051C000040606060808080A0A0A0C0C0C0E0E0E45
:1051D0001212121818181E1E1E2828281212120049
:1051E0000404040404040404040404040606060875
:1051F00008080A0A0A0C0C0C0E0E0E1212121616D1
:10520000161E1E1E38383800040404040404040466
:10521000040404040606060606060A0A0A0C0C0C18
:105220000E0E0E1010101414141A1A1A42424200D4
:105230000404040404040404040404040606060824
:1052400008080C0C0C1010101414141A1A1A22222C
:10525000222A2A2A0C0C0C00000102030C05060766
:10526000090A0B0D0E0F1213460A23418527003F32
:105270008D9E003F42165A408B66013F78C2053F23
:10528000AFB203405BF4033F3F23113F1BF9BD3F27
:1052900068F2073F1D96253F35B0953F38980D3F82
:1052A00080C4493F3BFA783F3A3B153F49C4873FAA
:1052B0009EDF563F6E5C1F3F2679DC3FEE993E3FF6
:1052C0003DC02C3F9C3CA34034194B3F5E836C3F58
:1052D00055CF7D3FCAD71B3F15EFC33EA8A8053E5B
:1052E00035BE3C3F34194B3F81E8573F2413633FA1
:1052F0005E836C3FCB26743F89EE793F55CF7D3F6F
:10530000A0C17F3F7BF32C3FCAD71B3F788C093F5E
:10531000506AEC3E15EFC33E1CF6993E58A25D3E26
:10532000A8A8053E3CAA323D000080BF0000D04145
:105330000000F8C10000504300005A430080C843F9
:1053400000C001C400F000450000FA4400A09545EB
:105350000068ACC500F0DE450038BA4500380B47A0
:1053600000A819C700789247000080BF0000C04124
:1053700000000CC200004A4300005E430080AD43C1
:10538000004011C4000002450000F44400488A4572
:1053900000B8B7C500C0EE450040A54500FF034773
:1053A00000D820C700349247000080BF0000A84109
:1053B000000018C200004443000061430000934312
:1053C000004021C40070024500A0EC4400F07D457F
:1053D00000E8C2C500E0FC4500888E450096F9460D
:1053E00000FE27C700C39147000080BF000098411E
:1053F000000024C200003E430000634300007443E9
:1054000000C031C40050024500C0E344009067452D
:1054100000E8CDC500B0044600006C450040EB46F6
:1054200000152FC780249147000080BF00008841ED
:10543000000034C2000037430000644300004543CD
:1054400000C042C400B001450060D944007051451D
:1054500000B8D8C500200A46007037450002DD4676
:10546000001936C7005A9047000080BF00008041F5
:10547000000044C2000030430000644300001943B0
:10548000000054C4009000450080CD4400C03B455E
:105490000038E3C500CC0E4600A0FE4400E4CE4632
:1054A00000063DC780638F47000000C000006041D8
:1054B000000054C200002943000063430000DE42A4
:1054C00000C065C40000FE4400E0BF4400702645F3
:1054D0000068EDC500B412460040874400ECC046A9
:1054E00000D943C780418E47000000C000005041F2
:1054F000000068C2000021430000604300009042A9
:1055000000C077C40020FA4400C0B04400A0114598
:105510000030F7C500E0154600008C420022B3467B
:10552000008D4AC780F48C47000000C00000304165
:1055300000007CC200001A4300005D4300001042DE
:10554000000085C40040F5440000A04400C0FA44B7
:10555000004400C600581846008079C4008AA54659
:10556000001E51C7007E8B47000000C00000204194
:10557000000088C2000013430000574300000040B1
:1055800000208EC400E0EF4400608D440080D344CE
:1055900000AC04C6001C1A4600A004C5002C9846A6
:1055A000008A57C700DF8947000040C00000104153
:1055B000000092C200000B43000050430000E8C10D
:1055C000004097C400C0E944008072440080AD44AC
:1055D00000CC08C6003C1B4600404EC5000E8B4662
:1055E00000CA5DC780178847000040C00000004126
:1055F00000009EC20000044300004843000064C253
:105600000060A0C40020E3440080464400E08844D9
:1056100000980CC600B81B4600A88DC5006C7C46DF
:1056200000DD63C7002A8647000080C00000E0401C
:105630000000AAC20000FA4200003D430000A6C2DA
:105640000080A9C400E0DB440040174400804B44C4
:10565000000C10C6009C1B4600D0B5C50050634628
:1056600000BE69C780168447000080C00000E0408B
:105670000000B6C20000EA42000031430000D4C27C
:105680000080B2C40040D4440000C9430040084434
:10569000002013C600F01A460090DFC500D04A462D
:1056A00000696FC700DF81470000A0C00000C04054
:1056B0000000C2C20000DE42000023430000FEC220
:1056C0000040BBC40040CC4400003943000090437C
:1056D00000C415C600B81946007005C600FC324665
:1056E00000DC74C7000A7F470004080C1014181C63
:1056F000202830384048500004080C1014181C2092
:105700002830384048500010181C202830384048B5
:105710005058607080001014181C202830384050F9
:10572000607080A00010181C202830384050607035
:1057300080A0C000102030405060708090A0B0C0A9
:10574000D0E0000053797374656D436C6B3A256447
:105750000D0A00004368697049443A253038780DD5
:105760000A000000436F6E766572736F7220646189
:105770006320706172612067657261722073696E67
:10578000616C0D00573235513830204F4B210D00E0
:10579000573235513136204F4B210D00573235519C
:1057A0003332204F4B210D00573235513634204FC4
:1057B0004B210D0057323551313238204F4B210DDE
:1057C000000000004661696C210D00005374617295
:1057D000742052656164205732355178782E2E2E10
:1057E0002E0D0000496E696369616E646F20646507
:1057F000636F64696669636163616F2E2E2E0D00AD
:10580000466C61736820703A256420733A256420E1
:10581000206E3A25640D0A004672616D6520736939
:105820007A653D25642C2053526174653D256420C2
:10583000487A2C20433D25642C2050726F63657399
:105840007361646F3D25642062797465732C2062F6
:10585000697472617465202564206B6270730D0A2F
:1058600000000000496E6963696120726570726FA3
:10587000200D000000FDFF4600FFFFC6000055435D
:105880000000E8410080E54300A0FE440008A14577
:105890000070CD4500711247008F924700E0C3446D
:1058A0000000D04200FC174600137A4700DC1BC6FC
:1058B000000034C2000012430000A0C0000080BFFE
:1058C0000000803FF304B53F00000045398E633E81
:1058D000ABAAAA3FF304353FAFAF4B3E15EFC33E33
:1058E000F781023FD48B0A3FBDF1193FD764663F71
:1058F000753DA73FCF06244082A2C1D12C1C4C8C01
:105900000909090909090909BEFEDEEE7E5E9D9DB1
:105910006D3DADCDFCECDCCCBCAC9C8C7C6C5C4CB3
:105920003C2C1C0C000020004000620000008400A1
:10593000B400DA0024016C01AA011A028802EA020A
:1059400000006604B405B405B405B405B405B40597
:10595000B405B4053207320732073207320732077F
:1059600032073207000000000000000000000000C5
:105970000000000000000000000000000000000027
:105980000000000000000000000000000000000017
:105990000000000000000000000000000000000007
:1059A0000000000011031103110311031003100381
:1059B00010031003010201020102010201020102AF
:1059C00001020102000100010001000100010001CB
:1059D00000010001000100010001000100010001BF
:1059E0000001000101FF2105120502051103110349
:1059F000110311031003100310031003010301032B
:105A00000103010300010001000100010001000188
:105A1000000100010001000100010001000100017E
:105A2000000100012201200101FF210512050205EC
:105A3000010301030103010311021102110211020A
:105A400011021102110211021002100210021002C2
:105A500010021002100210020002000200020002F6
:105A600000020002000200022201200103FFC2FE28
:105A7000A1FE91FE11031103110311031003100382
:105A800010031003010301030103010300010001DE
:105A900000010001000100010001000100010001FE
:105AA0000001000100010001000100013303320385
:105AB00023022302130113011301130131023002E7
:105AC00003022202210112012001020102FFE1FE74
:105AD00031051305220520052104210412041204B6
