:040000006F3010311C
:1000040000000000000000002A0F00002C0F000078
:10001400000000000E3B0000000000000000000093
:100024000E3B00000E3B000000000000000000003A
:100034000E3B0000000000000E3B0000000000002A
:100044000E3B00000E3B00000E3B00000E3B000088
:100054000E3B00000E3B00000E3B00000E3B000078
:100064000E3B00000E3B00000E3B00000E3B000068
:100074000E3B00000E3B00000E3B00000E3B000058
:100084000E3B00000E3B00000E3B00000E3B000048
:100094000E3B00000E3B00000E3B00000E3B000038
:1000A4000E3B00000E3B00000E3B00000E3B000028
:1000B4000E3B00000E3B00000E3B00000E3B000018
:1000C4000E3B00000E3B00000E3B00000E3B000008
:1000D4000E3B00000E3B00000E3B00000E3B0000F8
:1000E4000E3B00000E3B00000E3B00000E3B0000E8
:1000F4000E3B00000E3B00000E3B00000E3B0000D8
:10010400000000000E3B00000E3B00000E3B000010
:100114000E3B00000E3B00000E3B00000E3B0000B7
:100124000E3B00000E3B00000E3B00009632000028
:100134000E3B00000E3B00000E3B00000E3B000097
:100144000E3B00000E3B00000E3B00000E3B000087
:100154000E3B00000E3B00000E3B00000E3B000077
:100164000E3B00000E3B00000E3B00000E3B000067
:100174000E3B00000E3B00000E3B00000E3B000057
:100184000E3B00000E3B00000E3B00000E3B000047
:100194000E3B00000E3B00000E3B00000E3B000037
:1001A400000000000000000000000000000000004B
:0C01B4000000000000000000000000003F
:1001C000397101436EC619A0397141536AC866CAB4
:1001D00062CC5ECE19A0397101535AD056D252D496
:1001E0004ED64AD826DA22DC06DE3301614082820E
:1001F00041114AC026C222C406C68282B24D4101C4
:10020000024D924C224CB24B4101024B924A224A7F
:10021000B2494101024992442244B24041018280E4
:100220003D432A876373C3029377F700BDEFADE5C3
:10023000937606FF3D8ABA960CC34CC30CC74CC7D5
:100240004107E36BD7FE11E28280B306C3408A0602
:100250009702000096966780A6002307B700A306C2
:10026000B7002306B700A305B7002305B700A30412
:10027000B7002304B700A303B7002303B700A3020A
:10028000B7002302B700A301B7002301B700A30002
:10029000B7002300B700828093F5F50F9396850091
:1002A000D58D93960501D58D61B79396270097025A
:1002B000000096968682E78086FA9680C1171D8F89
:1002C0003E96E374C3F8A5B73367B500FD530D8BB5
:1002D00079E7B7877F7F9387F7F710419441B3722F
:1002E000F6003363F600BE92B3E262006395720CCF
:1002F0006318D6065041D441B372F6003363F6005A
:10030000BE92B3E262006396720A631BD604104584
:100310009445B372F6003363F600BE92B3E2620016
:10032000639F7208631ED6025045D445B372F6002F
:100330003363F600BE92B3E2620063987208631101
:10034000D60210499449B372F6003363F600BE92A8
:10035000B3E26200639172085105D105E30FD6F64E
:100360001317060193970601631CF7001357060144
:1003700093D706013305F7409375F50F91E9828015
:100380004183C1833305F7409375F50F91E1828076
:100390001377F70F93F7F70F3305F740828010219B
:1003A0009421050585056313D60075FA3305D640FB
:1003B000828011059105E314D6FE01458280210556
:1003C000A105E31ED6FC014582803105B105E31885
:1003D000D6FC014582804105C105E312D6FC0145EA
:1003E0008280EFF2FFE037440040AA8413090480C2
:1003F00089454A85EF30504465DDA68513050480A4
:1004000037440040EF30D042930404808545268570
:10041000EF30904265DD13050480EF30B041137575
:10042000F50FCDBBEFF2DFDC2A841305F00F7D144E
:100430004D3F65FCC5B3EFF2BFDB1305F00F553739
:10044000D1BBEFF2FFDA93178501E1872A84AE84EE
:1004500063DB0700814513057007E537854763EFC8
:10046000A7061374F407371901400546856513057F
:1004700009C0EF307018C13701468565130509C002
:10048000EF3090174D3F2285A93F13D58401913F4E
:1004900013D504011375F50FA93713D5840013750F
:1004A000F50F813713F5F40F2D3F93070004130563
:1004B00050096309F4009307800405456314F400B0
:1004C00013057008393F2944BD3793178501E1872B
:1004D00063D607007D141374F40F7DF425BBEFF28F
:1004E0003FD101118545214502C002C202C402C6A6
:1004F00002C802CA02CC231E0100EF30302A854513
:100500001165EF30902B3714014085670D497C80D1
:100510008A85C147130504C03EC44AC2EF3030018A
:100520000546130504C08565EF30100DE144896769
:100530008A85130504C07C8026C44AC2EF30207F20
:1005400091677C808A859147130504C03EC4EF30D3
:10055000007EE1778A85130504C07C8026C44AC2E8
:10056000EF30E07CB70704013EC6B70702003EC883
:10057000B70700023744004085073ECA6C009D471C
:1005800013050480FC8626CCEF3010258545130525
:100590000480EF3050280561B5B9EFF27FC54111F5
:1005A0003D3F3715014005468565130505C0EF3011
:1005B000B0042945853D814513050004593585471B
:1005C000631AF5042A849305A01A13058004953D47
:1005D0006314850401449144B93D7C00A29788A32B
:1005E0000504E31B94FE188785476315F702988777
:1005F0009307A00A6310F7021304803EB70500407A
:100600001305900E3D3D29C11305803E7D14EF304A
:1006100070446DF40144A9A881451305900E153569
:10062000130910046365A40009441309900E930490
:10063000803E81454A85313539C91305803EFD1418
:10064000EF305041FDF4F9B781451305A007D53BC4
:1006500071F101449144C5337C00A29788A305043D
:10066000E31B94FE1C86314493F7070491E3114485
:100670003715014005468565130505C02380818235
:10068000EF3080774D3B13351400410161B693057F
:10069000002013050005753335FDD9BFEFF2BFB358
:1006A00083C70182AA893289A18B368491E3A6058A
:1006B00013051005793309CD05443715014005466A
:1006C0008565130505C0EF302073B533228535BE2F
:1006D0009304803E130AF00F13054006EF30903765
:1006E000993B63154501FD14E5F8F9B79307E00F51
:1006F000E314F5FC93042020818CB384244163042B
:1007000009004A850533638D09004E948509253318
:10071000A38FA9FEE39C89FE26852933014471BF7E
:100720007D14113B75FCCDBF3C313821A207D98F18
:100730001831A2070821D98FA2075D8D828003A7F7
:10074000418279151447F9166378D5003C23338527
:10075000A7025C4B3E9582800145828083A741823F
:1007600098238D47631DF7005C395829A207D98F5C
:10077000C207383D282D2207598D5D8D8280814723
:10078000CDBF03A741821C45231005008546638A1F
:10079000D702EFF2FFA514472A84054563F2D7027A
:1007A00091EB10238D461C4B6306D60023260400D4
:1007B000084B29A05CC4EDDF3E85513708C80145D0
:1007C00091BC05458280854763E4A700054582808A
:1007D00083A741829847E37BE5FEEFF27FA1982350
:1007E000894641116308D7008D466304D702054549
:1007F00041010DB4CC471376F50F2181AA958946A6
:1008000006066800613D65F588861C8622055D8DBB
:10081000C5B7CC471376F5071D81AA9591460A0600
:100820006800AD3D69F56800013712051181C9B74F
:10083000EFF21F9C06218504C204C18081E48D472C
:100840003E85C9BA1C49E5DF13F7F4002A8419EB89
:1008500085071CC9484503A9418201E9835749001E
:10086000E3FFF4FC06A08147E1BF8347290013D7CB
:100870004400FD17F98FFDF7B93785468547E3F149
:10088000A6FC83278900E37CF5FA48C44D3D08C8DF
:10089000D1BFEFF2FF9589461306E01F2A84AE848C
:1008A000F53B8D4725E518301C20ED7622075D8F3E
:1008B00042074187938656A589476319D70489461D
:1008C00013066003A6852285D13B09ED18301C2054
:1008D000916622075D8F42074187938666148147A0
:1008E0006306D702894613062005A68522857D3337
:1008F000854709ED1C301820A207D98FC2077177F0
:10090000C1871307A7EBBA97B337F0003E856FF0A6
:100910007F90EFF25F8C2A84AE89B28413070002C5
:1009200083870400638EE7081307F0026393E700F0
:100930008504232404009820FD4763F5E708156A21
:10094000214BAD4A130ACA6D5040930600021307AB
:10095000B600B2876310F708814681472147130824
:1009600000029308F0021303E002654E938517001E
:10097000A6970385070093F5F50F9377F50F637F2F
:10098000F804638D17056383670C63F9E604635508
:100990000500D29783C707F81385F7F91375F50F8C
:1009A0006365AE00811793F7F70F938E1600B2962A
:1009B0003A859CA213F7FE0FBA86AE872A877DB7C9
:1009C0008504B9BF2285753B2A89238009004A85A1
:1009D0006FF0BF838507A38FD7FEADBF93B7170214
:1009E0003CB62285AE94713B2A8975F112200C48E1
:1009F000930600023D8A16064E854D3121E583C7D8
:100A00000900B9C303C7B9009377870089EF544041
:100A10003386F9008507B385F60003060600838553
:100A2000F5FF6387C5002285213569D12A8945B73D
:100A3000E39057FFBC36C1FF418B19C74E85393B48
:100A400008C419B7054961B70D4951B7E31867F9EB
:100A50002D459DB7EFF22FF87971AA8423A2018268
:100A60002D3E05896313050E814568001D358547B8
:100A700013894182014A6318F502C1461306E01B3F
:100A800081456800213909C5054545616FF0EFF7DB
:100A90008347010199E31945CDBF480871312A8A7E
:100AA000AA856800FD338D47E300F5FE6DF59306DA
:100AB00040023546D2856800D53679F50345610197
:100AC000034451012205418D01E513053102A93985
:100AD00080878349E10083470101B30AA402888625
:100AE00003441101A209B3E9A9002204034531011D
:100AF0005D8C034BC100834721014E9A220523A63A
:100B0000440123816401C2A05D8D01E51305F1015B
:100B100021391180A299B38759011D8DB3576503FF
:100B20007D7529053D66416779165917938627001B
:100B300094C4AA97637DF600636DD700A9BF894767
:100B40009CA0B3075A019CC819A809453DBFE3788A
:100B5000D7FE8D479CA01305B102F93688C8529480
:100B60005694C0C8A380040023209900014531BFDA
:100B7000EFF20FE803A44182397195441DC82A861B
:100B8000A30004000C1068000AC86133AA8415E1B0
:100B9000834701029DC38347B102C18B99EF0810BF
:100BA000753E08D068184936854748CC232C040088
:100BB0001CB0268521616FF0EFE58D44DDBFEFF2BB
:100BC0008FE103A44182232006004DC01C30AA8976
:100BD0001145858BA1C70329C4011C4C328A3309F6
:100BE000F94063F325012E89854A130B0020631415
:100BF0000900014525A01C4C13F7F71F1DEB24200D
:100C000013D59700FD14E98C93F4F40F91EC89EB64
:100C1000085063EAAA00A300040005456FF0EFDE68
:100C200048505536FDB748D04850113E6DD5AA946E
:100C300004D4104CCA841376F61FB307CB4063F379
:100C40002701BE840C54A6864E85EFF03FA561F5C2
:100C50001C4C33099940A6971CCC83270A00A69701
:100C60002320FA00E38509F8A69951B715457DB709
:100C7000EFF26FD603A44182954739CC18309147E3
:100C8000058B39CB444C63739500AA84184C232CF4
:100C900004008147B1C003492400260915C37D170C
:100CA0009387F4FFB3D72703B356270363EAD7002C
:100CB000B307204148507D8F18CC998C854935A0C9
:100CC000085048D0E5BF013663F5A9001C446368AD
:100CD000F500A300040085473E856FF00FD31C4C40
:100CE00048D0B3842441CA971CCCE36E99FC1C4CB9
:100CF000BE9404CCEFF0BFA469DD3C20A580FD17B5
:100D0000FD8CAA9404D48147C1BF83A741828DCFB3
:100D1000EFF20FCE79715C002E865CC10C082A843C
:100D2000CD3E05E18347010191CB8347B1010D45DC
:100D3000C18B81CB0808EFF07FA208C42285EFF0B9
:100D40005FA445616FF00FCD1545828083A7418276
:100D500063820712EFF22FC879715C005CC1AA842C
:100D60002E898D4795C51304500E9309E0028C48D7
:100D70009DE5BDE39C4813049900BDE723000400F2
:100D800026857D340D47AA876317E500814721A09A
:100D9000EFF03F9FAA873E8545616FF00FC7922015
:100DA0009306000208083D8A1606EFF03F8F09C53A
:100DB00023A804008547C5B78347010185C7638819
:100DC0008700638637018347B101A18BC5D726858C
:100DD000EFF01FA6AA8741DD23A804000D47E39C7E
:100DE000E7FA49BF8D47CDBF1808930619011306CE
:100DF000000295451C23638CC7006394B7009307DA
:100E0000500E0504A30FF4FE0507E315D4FE0347B7
:100E1000810193070002630BF70018B003479101AB
:100E20009306E00214A0631DF70209048347B10191
:100E300068102304F900EFF03F8F834791020347C6
:100E400081022320A900A207D98F2312F90083472A
:100E5000710203476102A207D98F2313F90039BF3A
:100E600038A00347A1016314F7000D04C1B738B0DF
:100E700011046DBF95473E85828014C5B386C602B6
:100E80004CCD50C92320050023220500232805004E
:100E9000232C050054C582801C4991E71C45084D50
:100EA0003385A7408280014582801C498DCB184D37
:100EB0001C456314F70085471CC982801441584DB6
:100EC0001386160010C13386F5001022369710A342
:100ED000144158456394E6002320050085075849CE
:100EE000E3CEE7FC1C4D85071CCDD1B7184D8147DB
:100EF0006344E00282805441584D1386160050C16D
:100F0000369714233387F50014A35441584563944E
:100F1000E6002322050085075849E3CEE7FC1C4D77
:100F200023280500FD171CCD828001A0B707EFBE66
:100F300037E700E0938707083CC701A054411045FC
:100F40001841B387B6005CC16342F60413F676001D
:100F50008D8636971C231305F00F3355C540E98F56
:100F6000B29505070145938685FF6349D000214767
:100F7000B305B740B3D7B7005D8D8280B397D70074
:100F80005D8D05078347F7FFB685F1BF0145828078
:100F900014211307F00FAA8701456391E6049833E3
:100FA0009306000F1376070F6309D6009376E70FB9
:100FB0001306200E01456393C60205830D8B014580
:100FC00011CFBC233D4793D647006389E60013D574
:100FD00027000D8975153335A00082808280EFF2DD
:100FE0002FA141112A842E852EC65D3715C9B24521
:100FF000183001459C313D8F1377E70F15E33C20F6
:10100000B821B3C6E700B18A81EE13F5070F137755
:10101000070F3335A00013371700198D3335A000A3
:1010200041016FF02F9F1C31194793F66700638BC6
:10103000E600B98B0947130500246387E700130511
:10104000004882801305001882809566930580070A
:10105000370600409386C67B2A8763D4A500130712
:10106000800793572740B357F640D3F707D09377BD
:1010700037008A07B6979863198DD3F7E710537531
:10108000F510E34BA0FC82808A058567AA959387BB
:1010900007903307F5001C6118631105D3F6E700CC
:1010A000D3F7E708272ED5FE1CE3E394A5FE828044
:1010B000B75700000721850008691461187187A7D8
:1010C000C7750C6D5376E1005370A100C3F0F5684D
:1010D000D3F5B608D376E50853772708B75700004D
:1010E00007A10776B75700005377A7004B75F7584D
:1010F00053F7E50087A74776B7570000CB7526085A
:1011000018E907A78776B7570000C3F5F658CB71E3
:10111000E0084377E00887A2C776B757000007A02A
:101120000777437626184BF7F67087214501546DF3
:101130005C61B757000053F2D10853F137008720A4
:10114000C5005372021053F0D700D3F73708D3729B
:101150005110D3F7D70887A64777B757000007A3E2
:1011600087774BF1D020CBF1D028C3F0D02053713A
:101170005108CB7160184B706008D3702708537703
:10118000270027201500C3F0D750CBF7D75018F110
:1011900027221500D3700608537606005CED27243D
:1011A0001500D3F03500D3F5350810ED27261500CE
:1011B0004CE98280EFF24F811D719304450481490F
:1011C000930A4002196C338A5903938BC4FB2E9AFD
:1011D00063C5D90025616FF0AF8287A7C4FB78187B
:1011E0003C08D397F720138404FC3A893EEC9C60BA
:1011F0003E8B3EFE58601C6041046117D3F6E70841
:10120000D3F7E700072784FFA10714F727AEF7FEFF
:101210008727C4FFD3F6E708D3F7E70054F3D39743
:10122000F7209CE3E39884FC5A8536C632C42EC26C
:1012300041354A85B53D86672246B246D397F720A9
:1012400092451305CCF3BEE0A66732878147D3975A
:10125000F720BEE4C667D397F720BEE8E667D397CA
:10126000F720BEECB308FB0007A70800B308F9009D
:10127000106107A5080054713308FA00D377C51030
:1012800087250800110511077114C377D778D3F6A5
:10129000A6104777C7682720E80014730727C7FF01
:1012A0003388FB00D3F6D7109107C776B76827209D
:1012B000D8000727C7FFD3F7E7101873C377B778AD
:1012C0005CE0E39157FB850993848404EDBDB76727
:1012D000000087A7074ED387A7A08DEBB767000054
:1012E00087A7474E6175D307F5A09DE3B757000068
:1012F00087A7C7755375F500531505C0420541858D
:101300009357F5011D8D42054185828021657D152C
:101310008280EFE2FFED056432941862872704E0D3
:10132000872604D0B7670000D3F7E7080727061021
:101330000725049041115377D70087A6874EB767DA
:101340000000AA842EC65377D71087A6C74EB7676A
:10135000000032C4C3F7D77007270620872604C0D1
:10136000D3F6E60807A7074FB7670000C3F7E6788C
:1013700087260630072704B0D3F6E60007A7474FB5
:10138000B767000043F7E67887270640872604A062
:10139000D3F6F60887A7874FB7670000C3F7F67044
:1013A000072706505377A70007A5C74FB767000068
:1013B0004377A7780725066087270480D3F7A70817
:1013C00007A50750B7670000C3F7A7700725067089
:1013D00007A747504375E578DD3DB76700008727CD
:1013E00084C007A58750B767000007A7C75053F50B
:1013F000A710872784E0B76700008AA043F5E7506D
:10140000872784A007A70751B767000043F5E75077
:101410008727848007A747512246B7670000C3F794
:10142000E7500725866007A78751B7670000B245D8
:10143000C377E5780725864007A7C751B76700003F
:101440009605C377E5780725862007A70752B76773
:101450000000AE944375E578186687A74752437538
:10146000F750B5358AA041016FE0DFDA3C21898B66
:1014700089CB1C3119471145998B6385E7000545D8
:101480008280014582801C7987204502B757000081
:1014900007210500D3F5170007A6C775146D0720AF
:1014A000C50001114FF7C510D3F5250853F5060007
:1014B000B7570000D3F60608D3F717082EE687A51E
:1014C00047771967930647F24371B5704B75B5704E
:1014D000587D130747F2138545014BF6C6705377C5
:1014E000D7002AE80AE4814743F5B760CBF7B76035
:1014F0005317E720B1482AEA3EEE3AEC1303810085
:101500003E9307260300130341013E939C6207208C
:101510000300CC663308F600D376F01007250800E8
:10152000910671177115C376B668D3F50510477625
:10153000F6582720C8001C6F58673388F50053F60B
:10154000D71091074776A7605377D7102720C80098
:10155000C3F7A7705CE1E39317FB05618280EFE2BC
:101560003FC941112A842EC6EFF0FFAB14303D4332
:101570000348240093D716008D8B13F68600FD17C1
:101580003337C000B38767021303D0029358480073
:101590001378C80013361600B24533076702BA97AE
:1015A000196713074734BA97C6979C231567130723
:1015B000C77C86073385A7029307D0074297330578
:1015C000F5021C4313D7460013471700B3D7C700D3
:1015D000058BB3D7E700998A3355F5029947639392
:1015E000F600719911E12E8541016FE0BFC2EFE273
:1015F0003FBD7173157113030304A2EFA6EDCAEB8F
:10160000CEE9D2E71A912AC236D23AC69147AE89BC
:10161000328963DAC704924709653384A700034718
:1016200084809307F00F6310F704924713058580B9
:101630003E95EFF0DF9A05C9832544804E85053736
:10164000AA8C4E852535AA9C638A2C1D93873C0065
:1016500063DB2701B38599014E85EFF05F9801C5E3
:10166000014D639E0C0C1245096A1306CAA0814500
:10167000EFE01FBB9247856A014D130BC9FF3E9AED
:10168000938A0A90B384A90163486D01CA8CB2475A
:1016900023A0970101458DAA2685EFF07F8F1DC9F4
:1016A00083254A802685914D5D3D2A8426857D3B94
:1016B000B30CA40019C06F10B02863875D01939725
:1016C0001D00EA9763CA670163140D006307990759
:1016D00023220A80050D7DB7338CB401E28526856F
:1016E000EFF0FF8F15C9268551333384AD406285F5
:1016F000B53BB305A400B307BD01AE978D07014507
:1017000063DC2701EE95A6952685EFF05F8D09C570
:1017100023228A80EE8C2285850D2A8461BFB385C1
:10172000B4012685EFF0BF8B45D1850BA9476384B3
:10173000FB006F1030226F101025E38A0CF4124763
:10174000B387A9013EC4896793878780A245BA976A
:101750003E8511463ED8EF20F0423247B3079D0147
:101760009306000C1CC3A2472322A7010547BC33E4
:1017700093F7070C6383D7000947B24798C72247FE
:10178000A24730239C331377C60015661306C67C28
:101790003A9613D73700134717009376170018426D
:1017A000918393C717003357D700858BB357F70042
:1017B00032473D46A2465CC7A24711479C3385830A
:1017C0008D8BB307F74032471CCBA247B422983326
:1017D0009182935717008D8BFD170D83B387C70236
:1017E000058B1306D0023307C702BA971967130790
:1017F0004734BA97B6979C23324786075CCB9257FB
:1018000085E32245EFF03F8211631A917A64EA641E
:101810005A69CA693A6A0D616FE05F9E014D05B76A
:10182000A247F11C8E0C9107BEDCA24782DE66C186
:101830009C337175858B91EB9167C1079818611581
:10184000BA97C1453E95EFF06FEFB24701459C4B0B
:101850003ECA52478D47E319F7FAA2479306000C98
:1018600085449C3313D4370013D74700058B058874
:101870003A9452473304E4022247382309830D8BFC
:101880003A9433378000198C224738331377070C8A
:101890006303D70089447175A18B6115F9C79167FE
:1018A0009818C107BA97B389A700A5454E85EFF0F0
:1018B000EFE886042A89938574004E85EFF00FE8DF
:1018C000AA89DD47B307F4021967130787B2916647
:1018D0009018856B196B130B0BBEF17A416CBA979C
:1018E0003EC8930780023304F4029967938747D771
:1018F000138706013297014A7D1CD94DA2973ECC31
:10190000F17793874709BA971387CBB0B38CE70079
:1019100093870601229BB29713848AFF3E94938B90
:10192000FBF0A247B8339307000C1377070C63133F
:10193000F7009209B1452285EFF04FE02392AC0009
:10194000337585012A9AA5452285EFF02FDF4205E0
:1019500041812393AC009307001263F5A70212475D
:101960008967BA972384078035B391679818C107B0
:10197000BA97938584003E95EFF04FDC335995007C
:10198000814981B7A1452285EFF04FDBA24723852E
:10199000AC0091459833218B11E3A5452285EFF0EA
:1019A000EFD9C2472394AC00A386BC0123A0FC005E
:1019B00023870C0085452285EFF04FD8630C052066
:1019C00089452285EFF08FD71375F50FA385AC00FD
:1019D00059D585452285EFF06FD61D4783C6BC00DB
:1019E0001375F50F2389EC007D57A389EC0023863E
:1019F000AC0009476392E602B3F979016310051C54
:101A0000E24721472389EC0023A0FC00A3860C00B9
:101A1000130770022387EC00A9452285EFF00FD24F
:101A20008D45131D55002285EFF04FD1A38AAC00E0
:101A30008D452285EFF08FD0238BAC008D4522851C
:101A4000EFF0CFCFA38BAC00A2471377FD019356E5
:101A5000AD00A388EC009833A387DC0093565D00AB
:101A6000FD8A2388DC00218B630F071885452285BA
:101A7000EFF0CFCC1375F50F238CAC008545228594
:101A8000EFF0CFCBA38CAC0085452285EFF00FCBD8
:101A900013D7C9003D8B238DAC00A38DEC00FD1442
:101AA0009209F10CE39F04E69167C1079818BA9771
:101AB000BE9A03ABCAFF03A40A00931739005A9ACF
:101AC000A297E3CE47E9E34C09E8E34A64E9124709
:101AD000896733046441BA9703AA07800D84CA84D6
:101AE00063532A01D284124789679387C780BA97C4
:101AF0003EDC9167C10798187175BA973E95B3059A
:101B00002A411305050A63D305008145E25726865D
:101B1000BE95EF2030079166901813870601329723
:101B2000F177B309F700138706013297BA973EC8D9
:101B3000A147B347FB0242479389090A22868325BE
:101B400087FF3385990026940E04BE95EF209003FD
:101B5000C24733252A0123AA370923AC070823AE3D
:101B6000870893471500BEC263442A016F10005ACC
:101B70001167410794183697F177BA973EC4224708
:101B800083A787090324C7099D078D830D801D8CBA
:101B90001307F01F635487006F10005863548000D0
:101BA0006F102058124789674255BA9723A0878043
:101BB000EFF06FC796473385A702B9B1A24723A0BC
:101BC0006C01A1469833218B11E39946A386DC0072
:101BD000794789B5BD45A3850C0023860C00228575
:101BE000EFF0CFB591452A8D2285EFF02FB52389EF
:101BF000AC008D452285EFF06FB4FD56A389AC0093
:101C0000238ADC0091B503D58C001335451F13459D
:101C100015009DB51167941841073697F177BA976B
:101C20003EC803D754FF83A78709916B938BCBF1F1
:101C3000BA973ED4825703CCF4FF03CDA400BE9BD9
:101C400083C7E4FF333C8001096793B717003E9CCC
:101C5000F147B307FC02196C130C0CD203D894FFA4
:101C60003E9C93071D003ED692473E978346978041
:101C7000A18A6386062E9967938747EBC2979C23B8
:101C8000424783CAC40093D627008D8B54A354B314
:101C90007CA37CB31167F17C9018930607019387AE
:101CA0004C01B296338DF600BA87C107938D4C0074
:101CB0004107938C4C09B2973297E697014ABA9D37
:101CC0003EC8B3064C0183CC060063820C0213F3BA
:101CD0008A00630A032E6686DE856A85EF20806AA5
:101CE000050A9146E69B669D860AE31CDAFC03CC56
:101CF000F4FF23010D00A3000D0023000D0083CD90
:101D0000E4FF63030C3232578D47F020998FF43093
:101D100098243316F600B396F6009165B317F700D2
:101D200013F7F70FC105F1778818AA95D107AE9779
:101D30001376F60F93F6F60FEE97814588238D05FF
:101D40008D073295A38EA7FE03C5E7FF3695238F37
:101D5000A7FE03C5F7FF3A95A38FA7FEE3C085FF53
:101D60009246096703C5B4FF36970347B7809306C9
:101D700000069307A5F21377070E09456310D72EC7
:101D8000538594201D8D1305C502EFF00FAC9166AD
:101D9000F177901813870601938B47093297BA9B06
:101DA00009671307C7D7BA9B5309A52013870601F4
:101DB000D1073297E29D814C330CF7006392BC2B24
:101DC000032881112147832741113347E802F17627
:101DD000881893864609056603D374FF83A814FF09
:101DE000530700F0137878001306C6B75A96268C6E
:101DF0003E971C230C331107A207AE978345E7FFDC
:101E0000A207AE978345F7FFA207AE979165C1057C
:101E1000AA95AE9689659385C5D7AE96B76500003D
:101E200007A6C552B765000087A58553B7650000B2
:101E300007A5C5535300C620B39707016118634037
:101E40006024854533836540AC34638C0550196E3E
:101E5000130E0E581165930E010741057695F17525
:101E6000AA9503AF45092EC8930F0002E15E93D5F2
:101E7000C701F2958C2113F5850009ED93F2350029
:101E800013954700B3825F40335555008D85729599
:101E9000AA958C2113F575002A98B397A7003305EE
:101EA000E7417515A2520E05429563C9A24C7D13F8
:101EB000631D030003C308001385180013531300A8
:101EC000630E034A9862AA88910613F5050811C9A2
:101ED000D307E72063D40700D317E7201CE2860767
:101EE000050813F5050411C9D307E72063D40700DB
:101EF000D317E7205CE2860705087D13631D030006
:101F000003C3080013851800135313006308034626
:101F10009862AA88910613F5050211C9D307E72034
:101F200063D40700D317E7201CE686070508C1899C
:101F300091C9D307E72063D40700D317E7205CE6F5
:101F4000860705083A85C28563D105429305880056
:101F50008D812E97B385D50341062E9809BF03477F
:101F6000B7808147418B19C3B337300131473358AC
:101F7000F840B387E7021167F17641079018996539
:101F80009106329793858588BA967D5E52470546BD
:101F90003383F5003305E300834805003345C80269
:101FA000B38EE6007D17336515032380AE0033063C
:101FB0001603E311C7FF3308C8409107E35808FC34
:101FC0003E9CC15AC1B9B3864D0103CE0600631DC4
:101FD0000E00668681456A85EFE08FA4668681459E
:101FE0005E85EFE0EFA3EDB9FD5663D60A008546A6
:101FF000B396C601FD164245F2859AC036DE72DA06
:10200000EFE0DFF3F2561306F00F525E0643630370
:10201000D5002A86B3856B0090A133066D0008A217
:102020000503E34A93FD6DB99C34E38B07D2116736
:10203000F177410794183697D1071966BA971306B6
:10204000C6B10147A945B306E600A83794220507A3
:102050008507AA96B4A7E318B7FE19B301450DB3D7
:10206000B3079C018823B25753052921850C3315EA
:10207000F500EFE09FFD27A0AB00910B81B3034576
:102080000C00996593850559131E1500F295039F61
:10209000050083423C00131E1F00196F93050F5D5E
:1020A000330FBE0095659385857DAA9583CC050089
:1020B000638B0C0E930D00029963B3859D4193834E
:1020C000838D2EC8850883C0F8FF910607A7C6FF39
:1020D00093D010008685635313009A858E05B295C0
:1020E00013D5B70106057A95831E0500154E63C307
:1020F0000E1813D58E40B28F2106B397A7002A98E9
:10210000B28A13FEFE003D46631ECE1E424666980E
:10211000BA8B33D6C700130EF600B39797014285EA
:10212000635C0516130588000D81615A2A973305F3
:1021300045032A98130500086349C5177D060A065A
:102140001E961C62D377F710D306842063C4070061
:10215000D306C620D3F7D710333EC00127A0FF0017
:10216000910FB397C701729893DE4E40E39B5FF9DE
:102170007E863A8E42856353051A130588000D81C9
:10218000615E2A973305C5032A98E39BF5F533036F
:10219000134063576000FD127D552E86E394A2F232
:1021A000050C2E8669B99963930C00029383838D85
:1021B000E15BFD50850883CFF8FF910607A7C6FFB6
:1021C00093DF1F00FE856353F3019A858E05B29558
:1021D00013D5B70106057A9503150500954E63489A
:1021E0000514135E8540B397C701729813DDF7019C
:1021F000137EF500930E0E01120DB38EAE418A0EC2
:102200009E9E87A70E00333EC001B397C70111857C
:10221000D3F7E7103D8993DEF7017298920E130E03
:102220000501330EDE410A0E1E9E1CE287270E00BA
:102230003335A000330E0501D3F7E710B397A7009D
:1022400021063A887285272EF6FE6353051013087F
:102250008E00135838004297330878037298E39938
:10226000C5F63303F341E35D60F2FD122E86E3937E
:1022700012F43DB7B397C701729813FE7E00338501
:10228000CD4193DE3E4033D5A7003305D541060549
:102290007A95831E0500A1BD03CD0B00850B331D70
:1022A000AD00B3E7A7016115A5BD1306F03F634775
:1022B000C60513153E00414D931B150093FB0B04FF
:1022C0001376F50333067641D37706D0137605FCF3
:1022D0005E96D37606D05E951985D3F7D71841055B
:1022E0000A051E95C3F6B750C3F7D7001461D3F79C
:1022F000D710D3760DD0D3F7D710A9B57285130DAB
:1023000000105DBF13D5F70113060E011205098EEB
:102310000A061E961C62D3F7E7103DBD834E0E00E1
:10232000050EB39EAE00B3E7D7016115A9B5B3970B
:10233000D7017698937E7500338EDC410D8533DEB0
:10234000C701330EAE40060E7A9E03150E0041BD46
:10235000834E08000508B39EAE00B3E7D7016115B0
:10236000EDB5196E130E4E56F5B483420500050502
:10237000B392B200B3E75700E115F9B61167410710
:1023800094183697F177BA9722573EC8850923AC3F
:10239000E7088567938707903E9B8257F1049387F0
:1023A00077023ED06F00702709036359B3021C63A4
:1023B00053AFE7A063090F0021078727C7FF53AF7B
:1023C000E7A0E3130FFE33E7C7039164C1041303CF
:1023D00001079A940A07269776975CCB8A052E9672
:1023E00085076F00102931C1116641068C182E96A1
:1023F000717732973AC8504B184F6353C7003287F2
:102400009165C10588187176AA952E9632C8504EEE
:102410006353C70032879165C10588187176AA9504
:102420002E9632C858CE18CE58CA124609670148AF
:10243000329783459780A18991C10D489164930893
:10244000010713850401C1044695C694916871770C
:10245000938838F4130647013383D740130747099D
:10246000C6972697958F2A961378F80F3305D34091
:10247000330ED040BA971442428763D5A600338703
:10248000C701182398A3050511068507E315A3FEC8
:1024900083594402832B04001D4B93F9190099E1E1
:1024A000130B00049167F174C1079818BA979384CD
:1024B0004409BE94B767000007A9C752B767000078
:1024C000856C87A90753530A2921938CCCB7014DFA
:1024D000A69C717CB38AAB0183C50A0085E5916730
:1024E000717BC1079818BA97930A4B09BE9A856405
:1024F00089679384844C9387C7E1CA948149B38CDC
:10250000FA00BDAC124789679166BA9703C7B780D6
:102510008D47B377FD02C1069018B2961377070274
:102520008A07B697E297DC4B63D6A70B9167938730
:1025300037F4EA97A69783CD070063FD6D09D3842E
:10254000392119E3D3044A2112478967BA9783C70F
:102550009780A18BB9CB19671307078A93973D0022
:10256000BA979C6393973D003E974863D3F79710C3
:10257000D3F4A4108566E687014793860690986396
:102580003386D700050753779710910718E207A7FE
:10259000C7FF5377F71027AEE7FEE342B7FE83C7C6
:1025A0000A00050D8A07BE9C35B713851D0053052B
:1025B00029210581331535012EC8EFE01FA993F7B6
:1025C0001D00D3072921C245D5D3D307A520530524
:1025D000292169BF69D76685EFE01FABC9B793F7BB
:1025E000070E13070006E39CE7EE11679418F177D6
:1025F00041073697938747090565BA971305C5B70D
:10260000930500243E95EFE03FA8D1BD92470967AE
:10261000834DC4003E9783479780B33DB001860D3C
:1026200093D637009183858B858ABE968D47B38676
:10263000F6028347A78078247D4D89838D8BBE96D3
:10264000F916FD7793B616009387476BB39DDD00AF
:10265000B38BF40005CF130580043385AD025834E5
:102660000323040089679387C7E1138DFDFF3A9325
:102670003386FA00B14E5E952A8E03470300E313BA
:10268000070033069641E685EF10D04F7D7713079C
:10269000C76F2697E347A003130800483388090350
:1026A0009247034DB400338C070163840D02156615
:1026B000E2855E85EE861306867FEFE0BFAF1307E7
:1026C00080043387ED02BA9B130740023387ED0283
:1026D0003A9C930600020947B386B641E314ED0223
:1026E0009167C1079018B29713074B01B38DE700AC
:1026F00093874D00130341093EC8138A8D001A8544
:10270000DE851306800436D41AD0EF10B047E28578
:1027100061465E85EF101047130D8C0193858B0188
:102720006A866E85EFE03FD6424593850B036A8645
:10273000EFE07FD5E2856A865285EFE0DFD4A256CE
:10274000130C4C02938B8B04FD160253CDFAFD77CC
:1027500093870770A6973E87938687041C6321079B
:10276000D397F720272CF7FEE39AE6FE9387070915
:10277000E393F4FE85679387079085097104BE94FF
:10278000F247E3C5F9E81247856793870790BA9740
:102790003EDAB247F17E981803AC8700B7670000B5
:1027A00087A50754B767000007A54754B76700001F
:1027B00007A08754B767000087A0C754B767000019
:1027C00007A10755B767000087A14755B767000005
:1027D00007A28755B767000087A2C755B7670000F3
:1027E00007A307569167C10713834E01BA97338F2A
:1027F0006700CA880148996F93020F086345887380
:10280000116A9818F17993070A01BA9793894909CF
:10281000D2550965BE9985641305C5E1138604F098
:102820004E95EF103036938604901307FCFF330764
:10283000D70293171C00F9171386C4B70D643ED452
:102840001304C4E093176C003ED64E943297B387BE
:10285000C900BA99116731074A97BAC42257F17271
:1028600094189303270079573307EC02138D420124
:10287000925A938D4200FD7CBAC01307E0073307DC
:10288000EC02BACA1307E0033307EC02BAC8130715
:1028900020043307EC02BAC613070A0136973A9DA3
:1028A00013070A013697BA9D13070D0187A707483A
:1028B000BACE22571CE087A70948FD74330B570195
:1028C0005CE09C63BECCE2851CE487A709005A85C6
:1028D0001ED05CE487A74748014A856B2720F41087
:1028E00087A749482722F410DC63938744103306F6
:1028F000F4002724F41087A749002726F410EFE0FE
:102900005FA13257A257E2853385E70093874420C1
:102910003306F4005695EFE0DF9F13860C102296E5
:10292000E2855685EFE0FF9EB25713860C20229673
:10293000D6973E85E2853EDEEFE0BF9DB647564F17
:1029400082533EC8C647764793840C013ECE9967B2
:10295000138947F8E647A294930F80431308804CED
:10296000338607011C628568938608FEB385D40010
:102970009CE1B38609019C62138548FE26951CE103
:102980005C62138688FE26961CE2DC629386C8FE93
:10299000A6969CE23386F7015C629386080EA696A3
:1029A0009CE2B386F901DC621385480E26951CE192
:1029B0001C62138688EE26961CE29C627D769386C6
:1029C000C8EE0726090087254900A6961306061EAD
:1029D0009CE2B388C400814641453386D5001C6221
:1029E0000566130606F03696469618623306DD0035
:1029F000D376E61053F7E510C3F6F568C777F6709F
:102A000014E23386DD001CE29106E398A6FCFD7615
:102A10009386062E330EDA00072589008566872502
:102A2000C900938606EEB388D400930E0AFE6A8628
:102A30006E85EE85EA863383D8417293872703003B
:102A400007A708009062D376F510910691089105CA
:102A5000C3F6E5685377E510D376D600C7F7F5706F
:102A600007A7C5FF27AED6FED377F70027AEF5FE42
:102A7000E313D7FCFD769386063E330EDA008725F6
:102A80000901856607254901938606DEB388D400CF
:102A9000930E0AEEEE85EA863383D84172930727B8
:102AA000030087A708009062D3F6E5105377E5107E
:102AB000910691089105C376F568C7F7F57007A7E9
:102AC000C5FFD376D600D377F70027AED6FE27AE64
:102AD000F5FEE313D7FCFD769386064E330EDA003F
:102AE0000725890185668725C901938606CEB388A7
:102AF000D400930E0ADEEE85EA863383D8417293C2
:102B00008727030007A708009062D376F510910687
:102B100091089105C3F6E5685377E510D376D600A2
:102B2000C7F7F57007A7C5FF27AED6FED377F70026
:102B300027AEF5FEE313D7FCFD769386065E872568
:102B4000090207254902330EDA0093860BBE930E65
:102B50000ACEA696EE88EA853383D641729307277C
:102B600003009C629061D3F6E5105377E510910560
:102B700091069108C376F568C7F7F57007A7C8FFF7
:102B8000D376D600D377F70027AED5FE27AEF8FE72
:102B9000E314B7FC072589028725C902138E0C6E42
:102BA00093860BAE930E0ABE529EA696EE88EA85D9
:102BB0003383D64172938727030098629061D3765E
:102BC000F510910591069108C3F6E5685377E51075
:102BD000D376D600C7F7F57007A7C8FF27AED5FE96
:102BE000D377F70027AEF8FEE314B7FC8725090377
:102BF00007254903138E0C7E93860B9E930E0AAE17
:102C0000529EA696EE88EA853383D64172930727B3
:102C100003009C629061D3F6E5105377E5109105AF
:102C200091069108C376F568C7F7F57007A7C8FF46
:102C3000D376D600D377F70027AED5FE27AEF8FEC1
:102C4000E314B7FC072589031309090493860B8E47
:102C50008725C9FF13030A9E93080A8EA696B3859B
:102C60006640C6959C6198621062D376F510110695
:102C700091061105C3F6E5685377E510D376D600C3
:102C8000C7F7F5700727C5FF272ED6FED377F700C5
:102C9000272EF5FEE315E6FC2A65BAD6C2D49ED2ED
:102CA000FED0FACCBECEEFE08FE282576A65411AC1
:102CB000B306FB008AA2EFE08FE1F2471A65C11468
:102CC000B306FB008AA2EFE08FE082575A65B38615
:102CD000FA008AA2EFE0AFDFF2474A65B386FA0056
:102CE0008AA2EFE0CFDEC2470A75B306FB008AA2D4
:102CF000EFE0EFDD664F3A65B306EB018AA2EFE045
:102D00000FDDC2477A65B386FA008AA2EFE02FDCB6
:102D100082579653664F06479E973ED08647B386A6
:102D2000EA018AA23E9FF2472658930600F1BA971D
:102D30003ECEC247865F130888049E973EC8938F95
:102D40008FFBF6473657E31DDAC0B25672561304AE
:102D50000420A107B38AC600A646A109E39886B459
:102D6000F1778D65054793874709F1056313EC38C3
:102D70001167941841073697BA971247BE95856731
:102D8000938707909246BA9709671307078036978B
:102D90009C61A107A10527ACF7FEE39BE7FEE24794
:102DA00085073ECCB247984793070048B387E702B0
:102DB0001257BA973ED2A24762479C33A18BB337D2
:102DC000F00085076344F7006FE09FDA9167981879
:102DD0007179C107BA970564130949093E9913052A
:102DE000C4B71306042081454A95EFD06FC3B2479C
:102DF00062471304C4B09C474A944AD03ECEB3877E
:102E0000E70271474A8B8149B387E7023E94B7676F
:102E1000000087A447539304F400F24763D4F900F9
:102E20006FE05FDF12478967BA9783C7B78013F7F0
:102E30000701630607FA48347C24D246B308F5003C
:102E400091E385461166717741068C182E9613071B
:102E500047093297032804000566530700F0FD5721
:102E60001306C6473ECF3ECD3ECB3A9681470D4E28
:102E7000F17E638AF8D63307F8000C2301433287CA
:102E80006FF0AFD2131F27008148B285F2869C6293
:102E90003388E601B10527AAF5FE872708007A984E
:102EA000850827ACF5FE87270800910627AEF5FEBA
:102EB000E3CFE8FC3307D7030D033A963A9E6FF051
:102EC000CFFB95679305C7FF9386C7773A861305AF
:102ED0000702986190728C621C62D376C710537798
:102EE000B7101106F1159106C7F6B768C3F7C7709A
:102EF000272ED6FEDCE1E31EC5FC7D1D13078704EB
:102F00006FF04FF9751D13068004133D1D00330D3E
:102F1000CD0215661306867FE2855E856A96EFE030
:102F20006FA96FF0DF8205671307C7354697014E1B
:102F3000C9439166C106801813050782A296AA8725
:102F4000130687C593854FEC9A96930087A1872334
:102F500005480726064818611C62130686FBD376CF
:102F6000C70053F877005377C708D061D3F77708C5
:102F700087A3050091065377C71053F60601D3F6D1
:102F8000060913058504B10527AEC6FE07A6C5FFD1
:102F9000D3F6C610D4EEC3F67770CBF77770D4FEB5
:102FA000D3F7C710FCEEE394C0FA9166C1069018FF
:102FB000B2969A96986207AE060107AF4601946EE4
:102FC000DC6207A8860087A8C600D06ED3F3D708B6
:102FD000D3F7D700D37EC708D376E8095376C70066
:102FE0005378E80153F7C809D3F8C801938606025D
:102FF00053F7E600537E160953761601D3F80701FE
:10300000D3F6D300D3F70709537F16015376160979
:103010004BF8B6E8C3F6B6E8D3F7C70127A0E6FF3A
:103020005376B61027A8C6FE53F67E004B77A670DF
:1030300043760760D373D6004B77A670D3F6C608E5
:10304000D3F31310D3F6661027A276FEC3F3B7E0CE
:10305000CBF7B7E027AED6FED3F32310D3F7571044
:1030600027A476FED373E8085377070127ACF6FE52
:10307000D3F333105377471027A676FE27AAE6FE30
:10308000E39A56F2FA869C62B862F4729CE3BC72D0
:10309000D0729387071253F7E70091065377D70052
:1030A00027A4E7F2D86E5377C70027A8E7F6B862DF
:1030B000D3F7E700D3F7D70027ACF7FAE395E7FC9F
:1030C000CA7707270111050E9CE3CE7727ACE70CE2
:1030D00013874700D3F7E700BCE7CE6727A8F708B8
:1030E000E3197EE48567938707900508BE986FF023
:1030F000EFF011679418410736975255BA97056655
:10310000130606F0BE95EF10E02751B9B76700002F
:1031100002CC07A4875245B1130414E0A29713040C
:10312000F01F1167941841073697F175BA956255EB
:103130009385050A2286BE95EF10C0246FE09FA6F6
:10314000B3079D016354F9006FE00FD8814B814DA7
:10315000330CA941B386B401A285368536C8EFE0A9
:103160000FC0C2462AC43685EFE04FB022473A95D9
:10317000AA9D13873D00635487016FE04FDA639483
:103180000B006FE06FD463840C006FE04FDBEA8CC0
:103190006FE0EFCFEFD2CF8501118545114502C217
:1031A00002C402C602C802CA02CC02CEEF00105FFF
:1031B000854537050020EF00506093070002371562
:1031C00001407C824C008D47130505803EC402C639
:1031D000EF00F0359307C0020C0841453EC802CA13
:1031E00002CEEF00D01B85454145EF00501E8545BE
:1031F0004145EF00902005616FD0CF81EFC25FFFA6
:1032000079711306C00281454800EFD06F81854572
:103210000945EF00D0564800EF001025B777004071
:10322000938747413EC2938741853EC4C1473EC60E
:10323000930700083EC83ECC930700103ECE93078C
:103240000040370402403ED0930700023ED24C00BB
:103250008D67130544443ED402CA02D6EF00501DC8
:103260001305444405468945EF00302405461305FF
:1032700044449145EF007023856737E700E093876A
:1032800007802324F710854513054444EF00B02040
:1032900045616FC03FF8597137450010A2D6A6D4DA
:1032A000CAD2CED0D2CE82E686E48AE28EE012FE88
:1032B00016FC1AFA1EF82AF62EF432F236F03AEE1E
:1032C0003EEC42EA46E872E676E47AE27EE0EF001F
:1032D000D02439C1054723A2E1809387418323A0ED
:1032E0000700138441831309F003938441851C4034
:1032F0006370F90C37450010EF00D02203C701833B
:103300009387018361C70147014693050010371574
:10331000014098A3EF00502E37250010EF00F01F5A
:1033200021CDB7070020054723A0E70893874183F5
:103330001307000498C39387818323A00700138495
:103340004183938481839309F007138941851C404D
:1033500063F1F90837250010EF00D01C03C7018383
:103360009387018349C7014701469305001037152C
:10337000014098A3EF0050283654A6541659865998
:10338000764A3660A660166186617272E272527386
:10339000C2733275A275127682767267E2675268DE
:1033A000C268326EA26E126F826F65617300203048
:1033B0000C40138541358605A695EFD03FB31C40E0
:1033C00085071CC0938781839C4315B70547054635
:1033D0002DBF0C40138541358605CA95EFD01FB12E
:1033E0001C4085071CC09C4085079CC08DB70547C5
:1033F0000546A5BFEFC2DFDF41112A84854511458F
:1034000002C202C423160100EF00303B4800EF0067
:10341000305203A581804C002315010033558502ED
:103420003714004002C27D15688413050480EF0044
:1034300050411305048093050002EF00505285456A
:1034400013050480EF00305041016FC0BFDCEFC2B4
:103450003FDA41118545414502C202C402C6EF0070
:10346000F033930700187C82C1473EC64C008D475D
:10347000371501403EC4EF00900B05469305001838
:1034800037150140EF005017930700047C824C0071
:1034900093078004371501403EC6EF0050094101F3
:1034A0006FC05FD7EFC2DFD101110945EF00701582
:1034B000152BEF00D057716513050520EF00506004
:1034C0001305800CEF00705C83A5818037650000D8
:1034D0001305053AEF00907AEF00E074AA8537658E
:1034E00000001305053BEF007079376500001305F8
:1034F000053CEF10E009A13F13054006EF00F0582E
:10350000B70500209306005009469385451D138595
:103510004135EFD09F96376500001305053EEF005B
:10352000F0753715002013058508EFD0AFD209C913
:10353000AA85376500001305453FEF00307401A0F0
:103540003765000013054540EF0050739385818176
:103550001385417FEFD06FFB22C0AA8539E9B71CE4
:10356000002093874C0E0967BA973EC2B73B0020F4
:10357000B71500201389450B1385417F9385450BB3
:10358000EFD0CFFC37140020AA851306D40B01E539
:103590008307990095E7376500001305C542EF00E2
:1035A000F06D82471385417F93858181EFD0EFF5E0
:1035B000C1B7376500001305C541EF00306C01A0AD
:1035C00083478900C18B91CB376500009305D40BED
:1035D00013054544EF00906A61BF832509003765F4
:1035E00000001306D40B13054545EF003069930521
:1035F000E0021305D40BEF00507A3DD9B765000007
:1036000093850546EFC05FCC25F53765000093052F
:10361000D40B13058546EF0070661305D40BEFD06D
:103620002FD539F59247238407809387C18323A040
:103630000700938701843765000023A00700130566
:10364000C5479387818223A007001384C183EF00BD
:103650003074138A0184938A8182138C4185832577
:103660000A001040144093090048B76700003386F1
:10367000C94013858749EF00706008400C401389EA
:1036800041377008B385B9404A95EFD04FD319E15F
:10369000F24799E7014523200A00EFD06FDDC9BD4D
:1036A0001C4003270A00B7180020B387F940BA97D7
:1036B0002320FA0018401C4093860BAFB389E940E1
:1036C000BE992320340110401387C80C93854137DD
:1036D00013854C0E9389C80CEFD07FF1138DC182F6
:1036E0002320AD0003A709001C4013854137B30513
:1036F000E900998F1CC010403AC4EF00D05383A753
:10370000490183A6890003A6C90083250D0022472D
:10371000376500001305054BEF00505683A70A00DC
:10372000B71800201389C80C9389C182B1C305471B
:103730006382E71293050004371501404D2D631590
:10374000051E37150040814513050580EF00B01FA9
:1037500037050240130545448145352B2945EF00C7
:10376000D032930500043715014051257DD909B5A4
:1037700083278900E1D38327C900E35DF0FA83A79B
:103780000900E359F0FA13870BAF014D83A7090035
:103790007D56636AFD049387418323A007009389C4
:1037A0004183130DF00383A709006379FD0623A26B
:1037B00001809307000423A0F900130DF00783A7ED
:1037C0000900637BFD06B707002023A00708EFF080
:1037D0007F9CEFF0BFA20325C900EFF0BFC1854772
:1037E00023A0FA0081BF8317070083152700AE9737
:1037F00095879387F77FC207C187638EC700FC85D3
:103800009305A101138541353AC4EFD00FEA224751
:10381000050D1107A5BF231D0100DDB783A5090014
:10382000138541358605E295EFD04FEC83A709005B
:10383000850723A0F90085BF83A5090013854135BD
:103840008605E295EFD08FEA83A70900850723A0BC
:10385000F900B5B783270D006358F00A1385413589
:10386000EFD08FE383A70900E34AF5FE83268900A2
:10387000894701476382F60483A70900FD56E37B6D
:10388000F7EA3736002093171700130606AFB297F2
:103890008397070091879387F77FC207C187638269
:1038A000D706FC859305A101138541353AC4EFD0B5
:1038B000CFDF22470507C9B713870BAF814683A720
:1038C00009007D56E3F8F6E6831707008315270005
:1038D000AE9795879387F77FC207C1876380C7023A
:1038E000FC859305A101138541353AC636C4EFD056
:1038F000CFDBA246324785061107D1B7231D010051
:10390000CDB7231D010079BF371500408145130550
:103910000580EF00500337050240814513054544FB
:103920009D2E23A00A0039B583270900E39907D209
:1039300081B1B71702409843B706FFF0136717002D
:1039400098C3D843758FD8C39843B706F7FEFD16C2
:10395000758F98C39843B706FCFFFD16758F98C303
:10396000D843B70601FFFD16758FD8C39843B70635
:1039700000ECFD16758F98C33707FF0098C723A684
:103980000702B746024003A706801367070123A07A
:10399000E680D843B706C1FFFD16D8C3D843D8C3C5
:1039A000D84313670740D8C3D843758FD8C3D843CB
:1039B000B7060001D8C39843558F98C39843931610
:1039C0006700E3DD06FED843B7160240719BD8C3FB
:1039D000D84313672700D8C32147DC42B18BE39E4D
:1039E000E7FE8280B7160240D8421146318B93879A
:1039F00081806305C70021466308C70237177A0034
:103A00001307072098C33717024058431183937652
:103A1000F700370700201307070036971423984351
:103A20003357D70098C38280D842D4424166498335
:103A30003D8BF18E1306270015CF3D47630FE6023D
:103A40004147630FE602454781456313E60041465F
:103A5000A1E23747024003270780418B0DC7371784
:103A60007A00130707203306C70290C3C9DD9843C5
:103A7000058349BF81454946E1BF85453546C9BFF4
:103A800081453D46F1B737173D0013070790E1BF69
:103A90003715024058559316F700585563DF060452
:103AA00011833D8B9306170037177A001307072001
:103AB0003357D70298C35455A182BD8A8DE29546EB
:103AC0003307D702058398C33717024058579443EA
:103AD0003D8B050733D7E60298C3984369B7054580
:103AE0006394A600E546E9BF3D456396A600D1462E
:103AF0003387E602C9BF8906E5BF3D8B93061700F1
:103B000037177A00130707203357D702F1B701A000
:103B100097D1FF1F938101D7174100201301814ED8
:103B200017450000130545C397C5FF1F9385854DB5
:103B30001386018263FAC5008322050023A0550085
:103B400011059105E3EAC5FE138501829705002062
:103B50009385851A6377B500232005001105E36D71
:103B6000B5FEFD42739002BCAD4273904280B762D5
:103B70000000938282087390023097C2FFFF938205
:103B8000A24893E2320073905230EFF09FDA97022E
:103B90000000938262917390123473002030B776E4
:103BA0000040056783A7064079173317A70013471E
:103BB000F7FFD0417D8F9C41D18F9045D18FD0456B
:103BC000D18FB397A700D98F23A0F6408280854775
:103BD0003395A70089C937770040832707405D8D5B
:103BE0002320A7408280B777004003A707401345F2
:103BF000F5FF798D23A0A740828085673395A700C4
:103C000089C937770040832707405D8D2320A7406F
:103C10008280B777004003A707401345F5FF798DF1
:103C200023A0A7408280B7F7FF1F03A547708280BB
:103C30001C4161773D0794517D8F9C45D58F9449F8
:103C4000D58FD449D58F944DD58FD44DD58FD451A0
:103C5000D58F9455D58FD98F1CC1DC455CC19C4153
:103C60001CC5DC415CC582802320050023220500A1
:103C7000232405002326050023280500232A050008
:103C8000232C0500232E05002320050223220502F4
:103C90002324050282801C4189C593E717001CC1BB
:103CA000828041677917F98FDDBF1C4101C6DD8D28
:103CB0000CC1828093C5F5FFFD8DDDBF93173500E4
:103CC00063DA0700B707024083A707407D8D3335CD
:103CD000A00082809317250063D70700B707024032
:103CE00083A7074DE5B7B70702409C43C5B79317B5
:103CF000350063D70700B707024023A2A7408280A0
:103D00009317250063D70700B707024023AAA74CE3
:103D10008280B7070240C8C38280EFC26FCD793F6F
:103D20006FC04FCFEFC2CFCCD9376FC0AFCE9C455D
:103D300013F7070113F8F70001C7D8413368E8000B
:103D40008E2113F7F50F39C318418146854E3D4F3B
:103D5000930F800293028004214E3396DE00B3F865
:103D6000C500631116039398260033131F011343F4
:103D7000F3FF3377E300B318180133E7E800639FDC
:103D8000F70550C98506E39AC6FD18C11307F00F61
:103D90006375B70454412146854E3D4F930F800211
:103DA00093028004414EB398CE0033F7150163921D
:103DB000E8021317260001173313EF001343F3FF34
:103DC000B376D3003317E800D98E639DF701232A19
:103DD00015010506E319C6FD54C18280E39457FA24
:103DE00010C94DB7E39757FE23281501DDB70845E5
:103DF0006D8D3335A000828019C20CC982804CC9F8
:103E0000828023A2A1848280371702405C439146BE
:103E1000B18B6385D700A1466382D706B7177A00B6
:103E2000938707201CC1371602405C4237070020E9
:103E3000130707019183BD8BBA9794231C41B3D715
:103E4000D7005CC15442A1829D8ABA969422B3D60F
:103E5000D70014C55442AD829D8A36971823B3D734
:103E6000E7005CC558423983937637001387C180D9
:103E700036971823B3D7E7021CC982805C435843A6
:103E8000C166C983758FB7F6FF1F83A6C670BD8B49
:103E900089071396160163480600C54601466392DA
:103EA000D702C94739A88946638FD702BD46638EBA
:103EB000D702C146638ED702C54601466393D70039
:103EC000C1471DEF3747024003270780418B05C7D5
:103ED00037177A0013070720B307F7021CC121D652
:103EE0001C41858381B701466DBF0546B547D1BFEB
:103EF0000146BD47F9B737173D0013070790E9BFE3
:103F0000B7150240D8559316F700D85563DF06045D
:103F100011833D8B9306170037177A00130707208C
:103F20003357D70218C1D455A182BD8A8DE2954678
:103F30003307D702058318C1371702405857144179
:103F40003D8B050733D7E60218C1184171B7854587
:103F50006394B600E546E9BFBD456396B600D14619
:103F60003387E602C9BF8906E5BF3D8B930617007C
:103F700037177A00130707203357D702F1B799C5CF
:103F8000371702405C4B5D8D48CB8280B7170240EB
:103F9000D84B1345F5FF798DC8CB828099C537176B
:103FA00002401C4F5D8D08CF8280B7170240984FAA
:103FB0001345F5FF798D88CF828099C53717024068
:103FC0005C4F5D8D48CF8280B7170240D84F1345B4
:103FD000F5FF798DC8CF82801A218D6793870704FA
:103FE000B6217D8F9E21D58FD621D58FF621D58FF5
:103FF0009625D58FB625D58FD625D58FF625D58F85
:10400000D98F1EA15A2DFD779387F77FF98F5EAD6B
:104010009E291EA982801E2189C593E707041EA13F
:104020008280C207C18393F7F7FBC207C183C5BF74
:104030004EA582804A2582800A256D8D3335A000E9
:10404000828037F7FF1F032747701E219146118397
:104050003D8BC2077117C18363E6E6023737014023
:10406000930607C0630ED50013070740630AE500F7
:1040700037570140930607C06304D500631AE50073
:104080000967D98F37370140130707C06302E5047A
:1040900037070040630EE50213070740630AE50295
:1040A00037170040930607806304D502130707C043
:1040B0006300E5023737014013070740630AE50054
:1040C00037570140930607C06304D5006318E50025
:1040D00093F7F7F8BA21C207C183D98F3717004089
:1040E000630CE500130707406308E50093F7F7CF7B
:1040F000FA21C207C183D98F1EA1DE215EB59E21A0
:104100001EB5B7370140138707C0630EE5009387DC
:104110000740630AF500B7570140138707C06304DF
:10412000E5006314F5009C251EB985475EA98280D1
:10413000FD575EA123100500231305002311050080
:104140002304050082801E2189C593E717001EA164
:104150008280C207C183F99BC207C183CDBF5E21A4
:10416000C207C18393F7F7F8C207C1835EA15E213E
:10417000DD8D4EA18280EFC2AF871629F577FD173E
:10418000F58FF621DA257971D58F1EA95625FD7791
:104190009387379FF58FD6212A842EC6D58F9625F3
:1041A000D58FB625D58F5EA55E29C207C18393F74B
:1041B000F7CFD98F5EA96808EFF01FC5B747014058
:1041C00093870780B245631EF402A2576547B38701
:1041D000E7029841930640060A07B3D7E70233D7B0
:1041E000D702B3F7D7021207920793872703B3D7F3
:1041F000D702BD8BD98FC207C1831EA445616FC092
:104200006F819257E1B791C55E250967D98F5EA589
:1042100082805A25F977FD17F98FD5BF93F5F51FE1
:104220004EA182800A216D8D3335A000828083A744
:10423000818037177A0013070720B3D7E70293F777
:10424000F70F2385F1841307803EB387E702239499
:10425000F1848280B7F700E0D8438146799BD8C3C8
:1042600003C7A1843306A70290CBD4CB984313672E
:10427000070198C398431367170298C3D843058B67
:1042800075DF9843799B98C38280B7F700E0D843E5
:104290008146799BD8C303D781843306A70290CB8C
:1042A000D4CB98431367070198C398431367170249
:1042B00098C3D843058B75DF9843799B98C3828058
:1042C000EFB21FF301112A84854537050400EFF092
:1042D000DFCE85452145EFF07FCC930700407C82FF
:1042E000371501408D473EC44C00E147130505C01A
:1042F0003EC6EFF0DFA322C837540040B7070800DE
:104300000C08130504803ECC02CA231E0100EFF006
:104310009FE6854513050480FD3505616FB09FEF6D
:10432000EFB27FEBB7540040AE89328901449384E9
:104330000480634524014A856FB03FED9305000476
:104340002685CD3565DDB387890083850700268501
:104350000504C205C181D935E9BF138701811C431A
:10436000B7460020938646CF3E95636BD500B7765F
:1043700000209386460063E5A60008C33E85828040
:10438000FD57EDBFB3C7A5008D8B3307C50081E78F
:104390008D4763EDC700AA87637EE50894218507F2
:1043A0008505A38FD7FEE3EBE7FE82809376350089
:1043B000AA8789CA942185078505A38FD7FE93F61E
:1043C0003700C5BF9376C7FF138606FE63F0C706A6
:1043D00083A3050083A2450083AF850003AFC5001A
:1043E00083AE050103AE450103A3850183A8C50182
:1043F0009385450223A0770003A8C5FF23A2570099
:1044000023A4F70123A6E70123A8D70123AAC70104
:1044100023AC670023AE17019387470223AE07FF43
:1044200075B790419107910523AEC7FEE3EBD7FE28
:10443000E3E6E7F6828063F1A504B386C500637DF9
:10444000D5029345F6FF8147FD176393F5008280FF
:104450003387F600034807003387C7002A972300F5
:104460000701DDB73387F50014233307F50085070F
:1044700014A3E319F6FE82808147E5BF39713EDA65
:104480002ED232D436D63AD842DC46DE93874181EA
:1044900022CC804326CA06CEAA8409C41C4C99E3C8
:1044A00022853D230C4454102686228536C6EF0013
:1044B0007016F2406244D24421618280011126CA02
:1044C0004AC806CE22CC4EC652C4AA842E8901C543
:1044D0001C4D91E3F5299C4C804499E32685CD2918
:1044E000973700009387871F631BF402C0405E2448
:1044F000A18BB1C71C48A1C7FD59294A1C4483455B
:104500000900FD17B1E91CC463DD07062286A94531
:1045100026856D28FD576308F502294535A0973794
:1045200000009387A71D6314F4008044C9B7973730
:1045300000009387A718E31CF4FAC0444DBFA2857E
:104540002685992255D97D55F2406244D24442498C
:10455000B249224A056182801CC4050963D707005D
:10456000184C63CAE700638845011C401387170095
:1045700018C08CA361B7228626858928E31035F9F7
:10458000D9B71C401387170018C0294798A371B7E3
:1045900093874181AA85884315B78DE16F00B07874
:1045A000930715002A84A6853E85EF00D0776DF924
:1045B0002285B2402244924441018280411122C4AA
:1045C00026C206C6AA87AE840144F1BF011122CCDF
:1045D00026CA4AC806CE4EC6AA842E89328401C590
:1045E0001C4D91E3F526973700009387270F63173B
:1045F000F406C0401C4C1CC45E24A18BC1C31C48E3
:10460000B5CF1C4808409379F90F1379F90F1D8D28
:104610005C486346F500A2852685692C25E51C4487
:104620000505FD171CC41C401387170018C0238004
:1046300037015C486388A7005E24858B81CBA9473E
:104640006316F900A2852685B5240DEDF24062447B
:104650004A85D2444249B2490561828097370000B9
:104660009387C7096314F400804469B79737000043
:104670009387C704E310F4F8C044ADBFA285268534
:10468000212041D17D59D9B741119387418126C25B
:10469000844322C44AC006C62A892E8489C49C4CFD
:1046A00099E3268535269737000093872703631BF8
:1046B000F402C0400317C40093170701C18393F6A7
:1046C0008700ADEA93F6070195EEA5472320F90090
:1046D000136707045AA47D55B2402244924402490C
:1046E0004101828097370000938747016314F400EB
:1046F0008044C9B797370000938747FCE31CF4FA5E
:10470000C0444DBF918B9DC34C5889C99307440445
:104710006384F5004A85212B232A04025E24232288
:10472000040093F7B7FD5EA41C481CC05E2493E709
:1047300087005EA41C4899EB5E241307002093F7C2
:1047400007286385E700A2854A8589295E2413F737
:1047500017001DC35C4823240400B307F0401CCCA1
:104760001C480145B5FB8317C40013F707082DD774
:1047700093E707045EA485B7898B014791E3584806
:1047800018C4F9BFDE25011122CC26CA06CE4AC8BC
:104790004EC613F78700AA842E8479EBD841634D67
:1047A000E000B841634AE0000145F2406244D2446F
:1047B0004249B2490561828058547DD703A904005B
:1047C0009396370123A0040063DB060670485E243D
:1047D000918B99C75C401D8E5C5899C33C401D8EDF
:1047E0005C540C50814626858297FD575A24631DE0
:1047F000F5009440F54763E8D706B70740208507E2
:10480000B3D7D700858BA5C31C48232204001CC046
:104810009317370163D80700FD576314F5009C40D8
:1048200091E368C84C5823A02401BDDD93074404DC
:104830006384F5002685E52E232A0402B5B70C50C3
:104840000146854626850297FD572A86E311F5F82D
:104850009C40B5DF75476385E70059476393E704DC
:1048600023A0240191B7136707045AA47D5535BFCF
:1048700083A90501E38A09F203A905008D8B23A012
:10488000350133093941014791E3D84918C4E35D43
:1048900020F11C540C50CA864E86268582976347A9
:1048A000A0005E2493E707045EA4C9B7AA99330960
:1048B000A940F1BF9C49A5C3011122CC06CE2A8490
:1048C00011C51C4D81E72EC62122B2459737000045
:1048D0009387C7E0639CF5004C408397C5009DC754
:1048E00022856244F24005616FF0DFE997370000EE
:1048F0009387C7E06394F5000C44C5B79737000071
:104900009387C7DBE39BF5FC4C44C1BFF240624494
:1049100001450561828001458280411122C406C69D
:104920002A844EA572A523200500232205002324F6
:1049300005002322050623280500232A0500232C31
:104940000500214681451305C505EFB07F8D9717FA
:1049500000009387E7B25CD097170000938707B5F4
:104960001CD4971700009387E7B85CD49717000012
:10497000938747BB00D01CD8B240224441018280BB
:1049800097050000938545F389AA411126C21306B5
:1049900080069384F5FFB384C4024AC02E8922C4E2
:1049A00006C693854407052E2A8401CD23200500E1
:1049B00023222501310508C4138684068145EFB002
:1049C0003F862285B24022449244024941018280BE
:1049D0001C4DA5E7411106C622C497070000938726
:1049E00067FA1CD59387C1819C43232405042326A1
:1049F0000504232805046314F50085471CCD2A848B
:104A0000352848C022851D2808C42285052848C4A9
:104A1000484001469145EFF05FF008440546A54542
:104A2000EFF0BFEF48440946C945EFF01FEF854757
:104A30001CCCB24022444101828082804111938784
:104A4000C18126C284434AC006C69C4C22C42A891E
:104A500099E32685B53F938484048044DC40FD17A8
:104A600063D607009C40B9CF8440C5BF0317C4007C
:104A700039E7C17785072322040623200400232277
:104A80000400232404005CC423280400232A040017
:104A9000232C0400214681451305C405EFB04FF8CF
:104AA000232A0402232C04022324040423260404BE
:104AB0002285B2402244924402494101828013047B
:104AC000840671BF91454A85EFF03FEC88C049FDEF
:104AD000B1472320F9000144E1BF797122D44AD0C3
:104AE00052CC56CA5AC85EC606D626D24ECE2A8A9E
:104AF000AE8A130485040149054BFD5B09ECB250F5
:104B000022544A8592540259F249624AD24A424B8F
:104B1000B24B45618280044483294400FD1963D46B
:104B200009000040E1BFDE24637BFB008397E400C3
:104B300063877701A6855285829A3369A900938499
:104B40008406E9BF1971A6DAAE848395E500A2DC7C
:104B500086DE328463DB0500DE2423A0060093F7A3
:104B6000070885E7930700401DA0300836C6EF0010
:104B70007023B246E34205FE7247BD67F98F79772D
:104B8000BA9793B717009CC2F1BF930700041CC0EB
:104B9000F6506654D654014509618280DE25011124
:104BA00022CC06CE26CA4AC8898B2E8489CF930789
:104BB00074041CC01CC885475CC8F2406244D244DF
:104BC00042490561828074003000AA84EFF09FF7AB
:104BD000A2452A892685012219E98317C40013F703
:104BE000072061FFF19B93E727005EA4C9B79707F1
:104BF0000000938727D99CD45E2408C008C893E797
:104C000007085EA4A2475CC8B24781CF8315E400C1
:104C10002685EF00501C11C55E24F19B93E7170019
:104C20005EA45E243369F9002316240179B7DDC13F
:104C300083A7C5FF411122C406C626C21384C5FF3F
:104C400063D307003E94AA84EF00B0209387C18409
:104C50009C4381EF2322040023A681842244B24096
:104C60002685924441016F00F01E637EF4001440DB
:104C70003307D4006396E7009843DC43369718C0A7
:104C80005CC0D9BFBA87D84319C3E37DE4FE94431F
:104C90003386D700631F86001040B29694C33386D4
:104CA000D700E31DC7FA10435843B29694C3D8C344
:104CB00075B76375C400B1479CC04DB71040B306CB
:104CC000C4006316D70014435843B29614C058C0AA
:104CD000C0C369B78280011126CA93843500F19858
:104CE00006CE22CC4AC84EC6A104B14763F3F404F1
:104CF000B14463E2B4042A89EF00B0159387C184FC
:104D000098433A8439E0938701859C4391E7814534
:104D10004A85252F23A8A184A6854A853D27FD59CC
:104D200063193507B1472320F9004A85EF00901237
:104D300029A0E3D004FCB1471CC10145F240624404
:104D4000D2444249B249056182801C40858F63CFBD
:104D50000702AD4663F6F6001CC03E9404C031A0C5
:104D60005C406313870223A6F1844A85EF00900E0E
:104D70001305B4009307440061993307F5405DDFE4
:104D80003A94898F1CC05DBF5CC3C5B72287404081
:104D900095BF130435007198E30285FCB305A44068
:104DA0004A856525E31C35FBB5BF1C46FD171CC6AF
:104DB00063DA0700184E63C5E700A9476394F5005E
:104DC0006FF0DF801C422E851387170018C28CA35A
:104DD0008280011122CC26CA4AC84EC652C406CED1
:104DE0002A89AE893284B304D6007D5A63149400B4
:104DF000014509A80C204E864A85EFF01FFB0504EB
:104E0000E31645FFF2406244D2444249B249224A85
:104E100005618280357122CD26CB4AC94EC706CFA7
:104E200052C556C35AC1DEDEE2DCE6DAAA89AE8498
:104E30003289368409C51C4D99E3EFF07FB9973765
:104E400000009387A7896398F40C83A44900DE24AB
:104E5000A18BE5C79C48F5C393070002A304F102A8
:104E60009307000302D22305F10222C6930B5002DE
:104E7000973A0000938A8A8A054C294B4A841C2061
:104E800099C3639F770DB30C2441638E0C00E686B3
:104E90004A86A6854E85EFF0DFF3FD57630FF51CBC
:104EA0009256E69636D21C206389071CFD571309DB
:104EB000140002C802CE3ECA02CCA309010482D467
:104EC00083450900154656858D2F13041900C247E6
:104ED00051E913F7070109C713070002A309E10409
:104EE00013F7870009C71307B002A309E10483463B
:104EF00009001307A002638FE606F2474A84814641
:104F00002546182093051400130707FD6377E60A6A
:104F1000B5CA3ECE85A8972700009387277E639564
:104F2000F40083A4890025B79727000093870779A9
:104F3000E39FF4F083A4C90019BFA6854E85EFF066
:104F4000AFF419D97D55FA406A44DA444A49BA495E
:104F50002A4A9A4A0A4BF65B665CD65C0D618280EF
:104F6000050431BF330555413315AC00C98F3EC828
:104F70002289B9B7324793064700184336C66347BC
:104F800007023ACE18209307E002631DF704183099
:104F90009307A002631BF702B24709041387470077
:104FA0009C433AC663C107023ECA2DA83307E040BE
:104FB00093E727003ACE3EC8F1B7B387670385462B
:104FC0002E84BA973DBFFD57C5B7050402CA814676
:104FD00081472546182093051400130707FD6374C5
:104FE000E606F9F20C200D4617250000130585731F
:104FF000A92511CD972700009387C7721D8D9307B0
:105000000004B397A700424505045D8D2AC80C2013
:1050100019461725000013052571130914002304F0
:10502000B102212D35C197B7FFFF9387A7FD95E703
:105030004247B2471377071009CF91073EC69257F0
:10504000D2973ED225BDB387670385462E84BA9793
:1050500051B79D07E19BA107D5B7780097060000DF
:10506000938666D726860C084E8597000000E700D9
:105070000000FD572A8AE314F5FCDE2493F70704A9
:10508000E39207EC1255C1B57800970600009386AD
:1050900086D426860C084E85012AE1BF797156CA4E
:1050A0009C49BA8A984522D426D24ECE52CC06D6F6
:1050B0004AD05AC85EC6AA892E84B284368A63D37F
:1050C000E700BA879CC00347340419C385079CC016
:1050D0001C4093F7070281C79C4089079CC00329A5
:1050E000040013796900631A0900130B9401FD5B36
:1050F0005C449840998F634CF9041C408346340407
:1051000093F70702B336D000A5EB13063404D2851B
:105110004E85829AFD576303F5041C401146984062
:10512000998B544481446397C700B384E64063D3AA
:10513000040081441C4418486354F700998FBE94BE
:10514000014969047D5B63982405014509A88546EA
:105150005A86D2854E85829A631E75017D55B2505E
:10516000225492540259F249624AD24A424BB24BFB
:10517000456182800509ADBF3307D40013060003E3
:10518000A301C7040347540493871600A297890616
:10519000A381E7049DBF85462286D2854E85829AEB
:1051A000E30E65FB050945B7797122D426D24AD0B2
:1051B0004ECE06D652CC56CA5AC8B689942D9307FD
:1051C00090063289AA842E8413863504638DF602F4
:1051D00063E2D706930780056386F61863EDD70070
:1051E000638E062093073004638EF60A930A240424
:1051F0002301D404C9A0930730066385F60A9307F8
:105200004006E395F6FE1C40084393F60708930515
:105210004500C5C61C410CC363D807001307D00264
:10522000B307F040A301E40497260000938646509C
:10523000294765A8930700076382F61663E5D7023E
:105240009307E0066389F6189307F006E390F6FAF1
:105250000C401C4313F80508138547006307080634
:1052600008C39C4385A893075007E383F6FE930782
:1052700080076389F61293073007E399F6F61C431B
:10528000D04181459386470014C383AA0700568501
:105290006D2601C53305554148C05C401CC8A301BB
:1052A000040461A81C43930A2404938647009C438A
:1052B00014C32301F4048547D5B793F607041C41B2
:1052C0000CC3B9DAC207C18781BF93F5050408C3CF
:1052D000C9D99E231307F0066387E60E97260000C0
:1052E000938606452947A30104044C400CC463C5BA
:1052F000050008406D9908C099E3B28A89CDB28A49
:10530000B3F5E702FD1AB6958C212380BA00B3D518
:10531000E70263F0E70CA147631EF7001C40858B92
:1053200091CB58401C4863C7E70093070003A38F45
:10533000FAFEFD1A3306564110C84E87CA86700021
:10534000A2852685EFF09FD57D5A631D450B7D55BF
:10535000B250225492540259F249624AD24A424B04
:1053600045618280A382D504972600009386463C3F
:105370000C40084313F805081C411105630D080291
:1053800008C313F7150001C793E505020CC0414798
:10539000B9FB0C4093F5F5FD0CC0B1B79C4193E708
:1053A00007029CC193078007A302F404972600001C
:1053B0009386463975BF13F8050408C3E30308FC58
:1053C000C207C1837DBF97260000938666362147BA
:1053D00019BFAE8735B794411C43CC4913F8060872
:1053E000138547006306080008C39C438CC339A09B
:1053F00008C393F606049C43F5DA8EA32328040021
:10540000B28A25BF14485686CA8526858299E3004C
:1054100045F51C40898B8DE7B2474844E35AF5F2C5
:105420003E853DB785465686CA8526858299E30026
:1054300065F3050A5C443247998FE345FAFEE9BFFC
:10544000014A930A94017D5BF5B7411122C42A8475
:105450002E8597F7FF1F23AF078806C6EFE0FFEF03
:10546000FD576319F50097F7FF1F9387A7889C43A3
:1054700091C31CC0B240224441018280411122C428
:105480002E848395E50006C6F922634905007C4811
:10549000AA977CC8B2402244410182805E247D7775
:1054A0007D17F98F5EA4FDB7DE25011122CC26CA37
:1054B0004AC84EC606CE93F70710AA842E843289B6
:1054C000B68991C78395E500894601462D2A5E2459
:1054D0007D777D17F98F5EA48315E4006244F24066
:1054E000CE864A86B24942492685D244056181A8C2
:1054F000411122C42E848395E50006C62922FD575A
:105500005A24631AF500FD77FD17F98F5EA4B240A7
:105510002244410182808567D98F5EA468C8C5BFD7
:105520008395E50081A893F5F50F1C2191C763933E
:10553000B70082800505D5BF91C101458280411128
:1055400022C42A842E85B285368697E7FF1F23A3BF
:10555000077A06C6EFE0DFDCFD576319F50097E731
:10556000FF1F938727799C4391C31CC0B2402244FC
:1055700041018280411122C42A842E8597E7FF1FB2
:1055800023AA077606C61122FD576319F50097E78F
:10559000FF1F938727769C4391C31CC0B2402244CF
:1055A00041018280411122C42A842E85B28597E769
:1055B000FF1F23A1077406C6CD20FD576319F50010
:1055C00097E7FF1F938707739C4391C31CC0B240AA
:1055D000224441018280411122C42A842E8597E70A
:1055E000FF1F23A9077006C6C920FD576319F500E0
:1055F00097E7FF1F938707709C4391C31CC0B2407D
:10560000224441018280411122C42A842E85B28520
:10561000368697E7FF1F23AF076C06C67928FD572C
:105620006319F50097E7FF1F9387C76C9C4391C3ED
:105630001CC0B24022444101828093F5F50F2A96A6
:105640006314C500014582801C21E38EB7FE050569
:10565000C5BF82808280411122C42A842E85B285F2
:10566000368697E7FF1F23A7076806C6B928FD57A8
:105670006319F50097E7FF1F9387C7679C4391C3A2
:105680001CC0B2402244410182809307800517E785
:10569000FF1F2321F7667D5582809307800517E75A
:1056A000FF1F2329F7647D5582809307800517E744
:1056B000FF1F2321F764014582809307800517E7C8
:1056C000FF1F2329F7627D5582809307800517E726
:1056D000FF1F2321F7627D5582800000809A45419B
:1056E0008E418F804545454949498E8F9092924F12
:1056F000994F555559999A9B9C9D9E9F41494F554D
:10570000A5A5A6A7A8A9AAABACADAEAFB0B1B2B3E0
:10571000B4B5B6B7B8B9BABBBCBDBEBFC0C1C2C3D1
:10572000C4C5C6C7C8C9CACBCCCDCECFD0D1D2D3C1
:10573000D4D5D6D7D8D9DADBDCDDDEDFE0E1E2E3B1
:10574000E4E5E6E7E8E9EAEBECEDEEEFF0F1F2F3A1
:10575000F4F5F6F7F8F9FAFBFCFDFEFF0000003F58
:105760007D1B443FD4D0313EB28F703F5C1C7C3FE8
:10577000441DAF3ED7B35D3FBB8D243FA8845B3F44
:10578000D8B9613FDD1A733F81BA7B3F41DA7E3F72
:10579000FDC87F3F65F97F3F8DFF7F3FFEB5033F2B
:1057A000DA86F13E0273A03E74473A3E1DB0C13D19
:1057B00086CB273D14A1683C327B723B00008030D1
:1057C000FD445730F3043530F037183044AC000056
:1057D00080BB0000007D0000000000000000000011
:1057E00000000000000000000102030406080A0D8A
:1057F0000405060708090B0DA0C17F3F55CF7D3F6B
:1058000089EE793FCB26743F5E836C3F2413633F60
:1058100081E8573F34194B3F35BE3C3F3CAA323DEF
:10582000A8A8053E58A25D3E1CF6993E15EFC33E62
:10583000506AEC3E788C093FCAD71B3F7BF32C3F64
:105840000000803F0000803F0000803F0000803F5C
:105850000000803F0000803F55CF7D3F5E836C3F5E
:1058600034194B3F00000000000000000000000061
:10587000000000000000000000000000A8A8053E95
:1058800015EFC33ECAD71B3F0505040405050401F7
:1058900004030101050606010404040104030101D7
:1058A000000000000000803F8C65583E9DE6493FA7
:1058B000AE67BB3E294C223F0000003F0000003F86
:1058C000294C223FAE67BB3E9DE6493F8C65583E62
:1058D0000000803F0000000000000000000080BFCA
:1058E000174521C0BA748AC0F52FCBC04FCC08C170
:1058F0008F712EC1903F56C1000080C11BC495C15D
:10590000D35AACC1D3B5C3C1FFC8DBC1EF89F4C161
:10591000CDF706C204F913C2000000000000803F6A
:1059200017452140BA748A40F52FCB404FCC08412F
:105930008F712E41903F5641000080411BC495411C
:10594000D35AAC41D3B5C341FFC8DB41EF89F44121
:10595000CDF7064204F9134218452142DFD82E4202
:1059600081B13C426CCC4A4246275942E8BF67426B
:105970005794764261D18242BA748A426D33924220
:10598000BF0C9A420000A2428A0CAA42C331B24222
:10599000176FBA42FEC3C242F52FCB4280B2D34248
:1059A0002A4BDC4282F9E44220BDED429C95F6424E
:1059B0009882FF42DB4104434FCC08437D600D4396
:1059C0003DFE114368A51643D8551B43690F20437C
:1059D000F9D12443659D29438E712E43554E33439F
:1059E0009A33384342213D433017424349154743D8
:1059F000721B4C4392295143903F5643545D5B4385
:105A0000C7826043D1AF65435EE46A435720704369
:105A1000A86375433CAE7A430000804370AC824378
:105A2000655C8543D60F8843BAC68A4308818D4397
:105A3000B73E9043C0FF92431BC49543BF8B98432E
:105A4000A5569B43C5249E4317F6A04396CAA3437D
:105A500039A2A643FA7CA943D35AAC43BB3BAF431C
:105A6000AD1FB243A406B54397F0B74382DDBA43F6
:105A70005ECDBD4325C0C043D3B5C34360AEC6436E
:105A8000C8A9C94306A8CC4313A9CF43EAACD24363
:105A900088B3D543E5BCD843FFC8DB43CED7DE434C
:105AA00050E9E1437FFDE4435614E843D22DEB4334
:105AB000ED49EE43A268F143EF89F443CFADF743DC
:105AC0003CD4FA4334FDFD4359940044592B02441D
:105AD00099C30344155D0544CDF70644BE930844BD
